:100000000C9402030C942A030C942A030C942A03E4
:100010000C942A030C942A030C942A030C942A03AC
:100020000C942A030C942A030C942A030C942A039C
:100030000C942A030C942A030C942A030C942A038C
:100040000C94260D0C942A030C947C060C945606F2
:100050000C942A030C942A030C942A030C942A036C
:100060000C942A030C942A033810AF10D010D71028
:10007000001104101E113211AED580A81FD300400C
:100080008D142002A1C8DA02817FD9F1DB40A4A639
:10009000AF746869730048656C70007361766520A1
:1000A000746F20656570726F6D00536176652070A6
:1000B000726F66696C650072657665727420746F24
:1000C00020736176656400526573746F7265207089
:1000D000726F66696C650061637469766520707221
:1000E0006F66696C65000050726F66696C65206EA2
:1000F000756D626572006E756D626572206F662047
:10010000737465707320746F2070756C6C206261FD
:10011000636B2E206966203020646F6E2774207018
:10012000756C6C206261636B2E0050756C6C626143
:10013000636B2073746570730074696D6520746FF0
:10014000207761697420616674657220666F7277CA
:10015000617264206D6F74696F6E206265666F7284
:10016000652070756C6C696E67206261636B2E0030
:100170006D696C6C697365630050756C6C6261636A
:100180006B2064656C6179007370656564207768C5
:10019000656E206261636B7761726420627574744E
:1001A0006F6E20707265737365642E004261636BBD
:1001B00077617264207370656564006E756D626549
:1001C00072206F6620737465707320746F206D6F7A
:1001D0007665207768656E20666F7277617264203D
:1001E000627574746F6E20707265737365642E200F
:1001F00069662030206B6565700D0A206D6F766929
:100200006E6720756E74696C20666F7277617264B8
:1002100020627574746F6E2069732072656C6561FD
:100220007365642E00737465707300466F72776136
:1002300072642073746570730073706565642077F1
:1002400068656E20666F727761726420627574747F
:100250006F6E20707265737365642E0073746570C1
:10026000732F73656300466F7277617264207370D9
:10027000656564000EF91118300B100D0F0F110F8A
:10028000101010100480F0FC7E0E0F070707070FF8
:100290001E7EFCF080FFFFFF000000000000000059
:1002A0000000FFFFFF010F3F7E70F0E0E0E0E0F0B4
:1002B000707E3F0F01383838383CFFFFFF000000E8
:1002C00000000000000000FFFFFF0000000000E051
:1002D000E0E0E0E0FFFFFFE0E0E0E0E0001E0E0E07
:1002E00007070707070F1EFEFCF0000000000000D4
:1002F00080C0E0F0783E1F070100F0F8FCFEEFE759
:10030000E3E1E0E0E0E0E0E0E0001E0E0E070707BA
:100310000707070F1EFEFCF800000000001C1C1C55
:100320001C1E3677F3E1C0787070F0E0E0E0E0E0AA
:10033000F070783F1F0F000000000080C0F0F87CD4
:100340001EFFFFFF000000E0F0FCFEDFC7C3C1C0DE
:10035000C0C0FFFFFFC0C0C00101010101010101D8
:10036000010101FFFFFF01010100FFFFFF07070778
:100370000707070707070707001F1F0F0E0E0E0EC0
:100380000E1E1C3CF8F8E0787070F0E0E0E0E0E071
:10039000F0707C3F1F0700C0F0F83C1E0E0E0707F0
:1003A0000707070F0000FEFFFF1C1C0E0E0E0E0EAF
:1003B0000E1E3CF8F8E0030F3F7C78F0E0E0E0E050
:1003C000E070783F1F0707070707070707070707BA
:1003D0000787E7FF7F1F00000000000000C0F0FC5F
:1003E0003F0F07010000000080E0F8FC3F0F030012
:1003F00000000000000000F0FCFE0E0F07070707DA
:100400000F1EFEFCF80080E0F3771F0E0E0C1C1C84
:100410001C3E77F3E0800F1F3F7870F0E0E0E0E0F3
:10042000E070783F1F0FE0F8FC1E0E070707070774
:100430000F1E3EFCF0C0071F1F3C7870707070707C
:10044000703838FFFF7F0000F0E0E0E0E0E070701F
:10045000783C1F0F0300C0C0C0C003030303F0F0CB
:10046000F0F07800198020007265616479002073D3
:10047000657474696E677300206C656400206F6C2E
:1004800065640020627574746F6E7300206D6F7404
:100490006F720073657475700020646F6E65005D27
:1004A0003F20002E2E00205B0066590166025C0290
:1004B0000000F40139020000735D012B02250200E7
:1004C000001027BB010000625001AC015C0201007A
:1004D000F40188010000645F0179017001000010DF
:1004E00027390100007057012A012502000010275A
:1004F000F60000006E4E01E700E60000000400D7A1
:10050000000000720000C700000000000000B700FB
:100510001805770000AA000000000000009B00A45E
:1005200005680000960000000000000091002F09FF
:10053000456E746572206E65772076616C756520F6
:100540007573696E6720302D392C206261636B737F
:10055000706163652C20656E7465722E0053656C46
:10056000656374207573696E67206F6E65206F66B2
:100570003A20003A20004A756E203237203230315E
:1005800039004669726D7761726520636F6D7069BD
:100590006C65642000656570726F6D20696E6974AA
:1005A0000000030C0F30333C3FC0C3CCCFF0F3FC52
:1005B000FF00000000240027002A000000000025A2
:1005C0000028002B000404040404040404020202B2
:1005D0000202020303030303030102040810204084
:1005E000800102040810200102040810200000000D
:1005F00008000201000003040700000000000000E2
:100600000000A91411241FBECFEFD8E0DEBFCDBF7C
:1006100011E0A0E0B1E0ECEBFDE202C005900D922C
:10062000AE34B107D9F722E0AEE4B1E001C01D92CB
:10063000AD36B207E1F713E0C2E0D3E004C0219782
:10064000FE010E949C15C130D107C9F70E94700DB0
:100650000C94DC160C940000CF92DF92EF92FF9284
:100660000F931F93CF93DF936C017A018B01C0E04E
:10067000D0E0CE15DF0581F0D8016D918D01D60156
:10068000ED91FC910190F081E02DC6010995892B37
:1006900011F02196EECF7E01C701DF91CF911F911E
:1006A0000F91FF90EF90DF90CF900895FC01538D54
:1006B000448D252F30E0842F90E0821B930B54173C
:1006C00010F0CF96089501970895FC01918D828DC9
:1006D000981761F0828DDF01A80FB11D5D968C9196
:1006E000928D9F5F9F73928F90E008958FEF9FEFA1
:1006F0000895FC01918D828D981731F0828DE80F5D
:10070000F11D858D90E008958FEF9FEF0895FC0116
:10071000918D228D892F90E0805C9F4F821B9109E3
:100720008F73992708958BEA91E00E94870321E057
:10073000892B09F420E0822F0895FC01848DDF01CC
:10074000A80FB11DA35ABF4F2C91848D90E0019644
:100750008F739927848FA689B7892C93A089B18933
:100760008C91837080648C93938D848D981306C0D4
:100770000288F389E02D80818F7D80830895EF9238
:10078000FF920F931F93CF93DF93EC0181E0888F4B
:100790009B8D8C8D981305C0E889F989808185FD32
:1007A00026C0F62E0B8D10E00F5F1F4F0F73112721
:1007B000E02E8C8DE8120CC00FB607FCFACFE8894A
:1007C000F989808185FFF5CFCE010E949D03F1CF8D
:1007D0008B8DFE01E80FF11DE35AFF4FF0829FB7AA
:1007E000F8940B8FEA89FB89808180620AC09FB7E9
:1007F000F894EE89FF896083E889F98980818370A4
:10080000806480839FBF81E090E0DF91CF911F9152
:100810000F91FF90EF900895CF93DF93EC01888DB7
:100820008823C9F0EA89FB89808185FD05C0A889F4
:10083000B9898C9186FD0FC00FB607FCF5CF80817A
:1008400085FFF2CFA889B9898C9185FFEDCFCE01C4
:100850000E949D03E7CFDF91CF91089580E090E063
:10086000892B29F00E94930381110C9400000895B4
:10087000CF93DF93EC019C818E81981768F48F856C
:100880006827E881F9810084F185E02D42E0CE01FE
:1008900009958C818F5F8C83DF91CF910895809132
:1008A0004E0190914F018530910510F084E090E069
:1008B00090934F0180934E018091590190915A017C
:1008C000009739F0853F21E0920728F084EF91E00E
:1008D00002C081E090E090935A0180935901809189
:1008E0005D0190915E01813127E2920710F080E175
:1008F00097E290935E0180935D0180915001909109
:100900005101009739F0853F21E0920728F084EFEC
:1009100091E002C081E090E09093510180935001FA
:1009200080915F0190916001813127E2920710F080
:1009300080E197E29093600180935F01809157017D
:1009400090915801813127E2920710F080E197E2FF
:1009500090935801809357010895FC016093BC0067
:100960008091BC0087FFFCCF9091B900987F908365
:100970000895CF92DF92EF92FF920F931F93CF9340
:10098000DF93EC01C62ED42E8B89882351F04111C0
:1009900008C084E98093BC008091BC0084FDFCCF3A
:1009A0001B8AEB888E010F5E1F4FE11014C0FA887E
:1009B00064EAC8010E94AD048989883011F1803150
:1009C00001F1DD2011F080E4E82EE092BB0064E844
:1009D000C8010E94AD04C092BB0064E8C8010E9437
:1009E000AD0482E0D81204C08B898F5F8B8B11C05D
:1009F00084E98093BC008091BC0084FDFCCF1B8AFD
:100A000008C0FF0CF092BB0064E8C8010E94AD046E
:100A1000D8CFDF91CF911F910F91FF90EF90DF9092
:100A2000CF900895089580E090E008950E94D71631
:100A30001F93CF93DF93CDB7DEB7E7970FB6F89448
:100A4000DEBF0FBECDBF182FCE0101960E941E0C37
:100A500089819A81AB81BC818F3E9E4BAD4ABE4D50
:100A600061F18FEE9EEBADEABEED89839A83AB8395
:100A7000BC831D82FE013696CE0140964DE750E0C4
:100A800024EF31E04193519311861086338B228BF2
:100A9000158E148E17A216A2E817F90799F785E9A3
:100AA00095E00E94F90A80914A0290914B02892BAD
:100AB00021F0CE0101960E94460B112331F08D8169
:100AC00090E090934F0180934E01E0914E01F091A0
:100AD0004F01E530F10510F0E4E0F0E0F0934F0154
:100AE000E0934E01EE0FFF1F81E090E08C0F9D1F01
:100AF000E80FF91F8581968190935A0180935901DF
:100B00008785908990935E0180935D01818D928DA0
:100B1000909351018093500183A194A1909360011F
:100B200080935F0185A596A5909358018093570106
:100B30000E944F04E7960FB6F894DEBF0FBECDBFFC
:100B4000DF91CF911F910895CF93DF93CDB7DEB79B
:100B5000E7970FB6F894DEBF0FBECDBF0E944F04DB
:100B6000CE0101960E941E0C8FEE9EEBADEABEED0B
:100B700089839A83AB83BC83E0914E01F0914F014E
:100B8000ED83EE0FFF1F81E090E08C0F9D1FE80FBB
:100B9000F91F8091590190915A0196838583809124
:100BA0005D0190915E01908B8787809150019091BB
:100BB0005101928F818F80915F019091600194A388
:100BC00083A3809157019091580196A785A78091A2
:100BD0004A0290914B02892B21F0CE0101960E948E
:100BE000460BE7960FB6F894DEBF0FBECDBFDF9180
:100BF000CF9108958F929F92AF92BF92EF92FF9202
:100C00000F931F93CF93DF93CDB7DEB7A1970FB6A6
:100C1000F894DEBF0FBECDBF7C01FA01CB0119A253
:100C2000223008F42AE08E010F5D1F4F822E912C96
:100C3000A12CB12CBF01A50194010E945715F90107
:100C4000CA01015011096A3014F4605D01C0695C89
:100C5000D8016C93232B242B252B61F7011511054B
:100C600091F0F80101900020E9F73197AF01401BA6
:100C7000510BD701ED91FC910280F381E02DB80179
:100C8000C701099502C080E090E0A1960FB6F894E4
:100C9000DEBF0FBECDBFDF91CF911F910F91FF90AF
:100CA000EF90BF90AF909F908F9008951F920F92FA
:100CB0000FB60F9211242F933F934F935F936F932F
:100CC0007F938F939F93AF93BF93EF93FF938BEAA1
:100CD00091E00E949D03FF91EF91BF91AF919F9191
:100CE0008F917F916F915F914F913F912F910F90D5
:100CF0000FBE0F901F9018951F920F920FB60F9274
:100D000011242F938F939F93EF93FF93E091BB0157
:100D1000F091BC018081E091C101F091C20182FD9E
:100D200012C090818091C4018F5F8F732091C501A3
:100D3000821751F0E091C401F0E0E555FE4F958F28
:100D40008093C40101C08081FF91EF919F918F91A9
:100D50002F910F900FBE0F901F9018950C941715A0
:100D6000DC01ED91FC910084F185E02D40E00994D7
:100D7000FC018781869586958695681740F4658382
:100D80009385690F6770606BCF010C94B00608956E
:100D90000F931F93CF93FC0126816217A0F4C62FF7
:100DA0008C0164839085C90F6C2F6F70CF010E94F6
:100DB000B0066C2F62956F706061C801CF911F9172
:100DC0000F910C94B006CF911F910F910895CF927F
:100DD000DF92EF92FF920F931F93CF93DF93EC017B
:100DE000F62EC42ED22E8F8186958695869508176D
:100DF00010F00FEF080F1D2D6F2DCE01011788F099
:100E00000E94C806612FCE010E94B806EF2CCE14B6
:100E100030F06F85CE010E943804E394F8CF1F5F55
:100E2000EBCF0E94C8066D2DCE01DF91CF911F91AF
:100E30000F91FF90EF90DF90CF900C94B8062F9217
:100E40003F924F925F926F927F928F929F92AF925A
:100E5000BF92CF92DF92EF92FF920F931F93CF93A7
:100E6000DF93CDB7DEB729970FB6F894DEBF0FBE7C
:100E7000CDBFDC011D962D913C911E9721153105AA
:100E800009F459C199878887F901329644903196BF
:100E90007491E72EF12CB7E0EB0EF11C93E0F59482
:100EA000E7949A95E1F7EA823196A4913196E4911C
:100EB0006A1758F0462F50E08E2F90E0FC01EA0FA1
:100EC000F11D4E175F070CF46AC06D3031F460E01D
:100ED000888599850E94C80631C16A3009F02BC106
:100EE00060E0888599850E94C806E885F9850089B3
:100EF0000E9DE02C11242781269526952695658147
:100F00006E0D8E2D821B860F9485992309F40EC1D8
:100F100018160CF00BC1A885B9851B969C911B97E0
:100F2000890F87701B968C931B972E1915962C93FF
:100F300015971D96ED91FC911E97309769F03396A9
:100F4000E491F0E0379683E0F595E7958A95E1F72F
:100F50000E9FE02D112401C0E0E00FEF020F0E0FF5
:100F6000E885F985468141506481CF010E94E706FA
:100F7000A885B9851C968C911C97813009F0DEC03C
:100F80001B966C911B97660F660F660F6F731A9610
:100F90006C931A976064CD010E94B006CFC0A9017E
:100FA0004A5F5F4F6A1BA885B9851996FC9119970E
:100FB0005096EC91FE9FE02D1124EF83F901A4914E
:100FC0003196249130E03A2B2230310570F44E9C5A
:100FD000C0014F9C900D1124689F8001699F100DE6
:100FE0001124040F151F312C22C0777021F028E046
:100FF000322E371A01C0312CFA0120E0A0E0B0E017
:10100000261731F03491A30FB11D2F5F3196F8CF21
:10101000FA01E20FF11D4490EA9E8001EB9E100D53
:10102000FA9E100D1124080F191F040F151FA88513
:10103000B9851496BC91BB83E885F985F581FC835D
:10104000842D90E09E838D83812C912CC12CD12CFA
:10105000C9829A81C91608F068C0212C3601BFEFF9
:101060006B1A7B0AE885F9858089281608F055C037
:10107000F981F11102C0222079F0A885B985159671
:10108000BC901597B3946B81CD010E94C8066B2D5F
:10109000888599850E94B806A12CB12CA41410F063
:1010A000B12C2FC0F401EA0DFB1DE00FF11F54908D
:1010B000332061F0E614F70449F4E52DF0E0032C49
:1010C00002C0F595E7950A94E2F75E2EE885F9856A
:1010D0008089823069F4E52D2110E295EF70F0E00F
:1010E000EF55FA4F5490652D888599850E943804F4
:1010F000652D888599850E943804FFEFAF1ABF0AD5
:10110000CDCF8F81B81639F060E0888599850E942F
:101110003804B394F6CF2394A5CF9FEFC91AD90A08
:10112000AD81BE818A0E9B1E93CF6C818885998587
:101130000E94B80603C080E090E002C081E090E029
:1011400029960FB6F894DEBF0FBECDBFDF91CF91C9
:101150001F910F91FF90EF90DF90CF90BF90AF90D5
:101160009F908F907F906F905F904F903F902F90C7
:1011700008952091590130915A01820F931F18163A
:1011800019063CF4853F21E0920728F084EF91E0B6
:1011900002C081E090E090935A0180935901089534
:1011A000CF93DF93EC01FE018491882321F00E940C
:1011B000670C2196F8CFDF91CF9108950F931F937D
:1011C000CF93DF93CDB7DEB72F970FB6F894DEBF7E
:1011D0000FBECDBF0E94D60A09EA14E04FE050E0EE
:1011E000B801CE0101960E9406158BE50E94670C9E
:1011F00089810E94670C8DE50E94670C80E20E9445
:10120000670C8C819D810E94D00880E20E94670C4F
:10121000EA81FB81309781F04081518160E070E08C
:101220002AE08BEA91E00E94FA0580E20E94670CB6
:101230008E819F810E94D0080E94D60A015F1F4FB5
:1012400085E00033180751F62F960FB6F894DEBFED
:101250000FBECDBFDF91CF911F910F910895EF92F7
:10126000FF920F931F93CF93DF93CDB7DEB72F97E6
:101270000FB6F894DEBF0FBECDBF0E94D60A82E83B
:1012800095E00E94DE0A86E795E00E94F90A0E9436
:10129000D60A09EA14E078014FE050E0B701CE0128
:1012A00001960E94061589810E94670C80E20E94C7
:1012B000670C8C819D810E94D00883E795E00E9495
:1012C000DE0A8C859D850E94D0080E94D60A8FE098
:1012D000E80EF11C80E3E81685E0F806E9F60E94C6
:1012E000D60A8DE595E00E94DE0A4FE050E0B80195
:1012F000CE0101960E94061589810E94670C80E24A
:101300000E94670C015F1F4F85E00033180769F7E3
:101310000E94D60A80E395E00E94F90A2F960FB644
:10132000F894DEBF0FBECDBFDF91CF911F910F911B
:10133000FF90EF90089580E0E82FF0E0EA59FE4F2B
:1013400010828F5F8630C1F710926C010895CF93A1
:10135000DF93EC018CE492E00E944E0CAE0160E061
:1013600070E02AE08CE492E0DF91CF910C94FA05D2
:101370008770E82FF0E0EE5EFE4F9081F89488B120
:10138000807F892B88B9789408959091650198178A
:1013900081F080936501882311F0853051F40E941B
:1013A0001A0D6093610170936201809363019093C1
:1013B0006401089580917401811102C080916F01D0
:1013C000089510927A019C01629FC001639F900D65
:1013D000729F900D1124892F992790937601809305
:1013E0007501681B790B70937801609377010E94F7
:1013F0001A0D60937F017093800180938101909317
:1014000082018091750190917601892B61F061E0F4
:1014100083E00E946C0C81E08093790180917501DA
:10142000909176010AC060E083E00E946C0C1092FB
:1014300079018091770190917801A0E0B0E08093EC
:101440007B0190937C01A0937D01B0937E01089570
:10145000809152010E94B8091092530110925401D8
:10146000109255011092560181E0809300016AEFBD
:1014700070E080E090E00E94E10980915901909134
:101480005A0120915B0130915C012817390731F036
:1014900090935C0180935B010C94A70908951F93BE
:1014A000CF93DF93182F882329F0809159019091D1
:1014B0005A0104C0809150019091510120915B012B
:1014C00030915C018217930731F090935C01809317
:1014D0005B010E94A709C0915B01D0915C018091E2
:1014E00052010E94B809209749F4109253011092BA
:1014F0005401109255011092560111C09E0140E016
:1015000050E060E472E48FE090E00E942D1520939B
:101510005301309354014093550150935601109359
:101520000001A0915B01B0915C0126E03FEF4FEF1D
:101530005FEF0E944C1524EF31E040E050E00E9444
:101540002D15CA01B9016C507E4F8F4F9F4F80E41B
:1015500090E0DF91CF911F910C94E1090F931F93BD
:10156000CF93DF93EC01162F22E030E0062F009599
:10157000FD9AFC98FB98D2BDC1BD10BD8FB7F89401
:10158000F999FECFFA9AF99A8FBFF999FECF2230D6
:10159000310539F4CE010E94AE0621E030E080230F
:1015A00039F7DF91CF911F910F91089542E050E0FC
:1015B0006BE471E08BEA91E00C942C030F931F9382
:1015C000CF93DF938C01C0E0D0E0F801EC0FFD1F5A
:1015D0006491662341F08BEA91E00E94BF03892B5E
:1015E00011F02196F2CFCE01DF91CF911F910F9193
:1015F0000895CF93DF930E94DE0AEC010E94D60A81
:101600008C0F9D1FDF91CF910895E0914802F091DA
:1016100049020196880F991F880F991FE80FF91F3B
:10162000DF011497808191812D913C91821B930B56
:1016300069E070E00E948815892B11F4CB010895B0
:10164000CB01019608950F931F93CF93DF93EC0185
:101650008C01060F171FC017D1079CF4CE010E9402
:10166000AE068F3F61F0FC9AFD98FB98D2BDC1BDDC
:101670008FB7F894F999FECFFA9AF99A8FBF21960D
:10168000EACFDF91CF911F910F9108954F925F9212
:101690006F927F928F929F92AF92BF92CF92DF9282
:1016A000EF92FF920F931F93CF93DF934C0180E053
:1016B00090E00E94050B8C0180914A0290914B02B0
:1016C000892B09F4A8C0E0904802F0904902F70184
:1016D00044805580A080B180C2018A199B09801B7B
:1016E000910BC7970CF497C0C281D381CF3FFFEF16
:1016F000DF0721F4E801CA0DDB1D21976E0126E307
:10170000C21AD1083401CC15DD050CF484C0C60121
:101710000E94AE06F40191914F01FFEFCF1ADF0A4C
:10172000891789F3CE01C896481659060CF071C086
:10173000B801C5010E94230BF701C081D181C00F00
:10174000D11FD7FD68C07E015E01F7E3AF0EB11C6B
:10175000F301D1903F01C7010E941715D81621F05F
:101760006D2DC7010E941F15FFEFEF1AFF0AEA1443
:10177000FB0471F7E0904802F0904902CE01C69652
:10178000F7019383828380819181080F191FC01B09
:10179000D10B8E01D7FF02C0095F1F4F83E0159563
:1017A00007958A95E1F7F8E00F9FC019112497E398
:1017B000892E912C6FEF27E0C22ED12CAA24A3945E
:1017C000B12CC6018C1B9109950102C0220F331F59
:1017D0008A95E2F7C90180956823CF5FC83058F039
:1017E000F70180819181800F911F0E94AE0A0F5FE7
:1017F0001F4F6FEFC0E0F1E08F1A910811F76F3FB4
:1018000051F0F70180819181800F911F0E94AE0AF3
:1018100002C0219696CF80E090E0DF91CF911F919A
:101820000F91FF90EF90DF90CF90BF90AF909F907F
:101830008F907F906F905F904F900895CF92DF923E
:10184000EF92FF920F931F93CF93DF937C018091D0
:101850004A0290914B02892BB9F0E0914802F09135
:101860004902C280D3808FEFC816D80669F087017D
:10187000C6E3D0E0C6018C1B9D0B0E941715F80132
:1018800081938F012197B0F7C701DF91CF911F910D
:101890000F91FF90EF90DF90CF9008950F93CF932B
:1018A000DF93EC011B861A8660E40E94B0060F816C
:1018B00006950695069501504E81415020E060E066
:1018C000CE010E94E706DF91CF910F910895682F16
:1018D0008BEA91E00C94BF0390E0FC01E351FA4FD6
:1018E0002491FC01E752FA4F3491FC01EB53FA4F7B
:1018F000E491EE2309F43CC0222339F1233091F026
:1019000038F42130A9F0223001F584B58F7D12C062
:10191000273091F02830A1F02430B9F48091800074
:101920008F7D03C0809180008F77809380000DC0F1
:1019300084B58F7784BD09C08091B0008F7703C0D4
:101940008091B0008F7D8093B000F0E0EE0FFF1F1C
:10195000E554FA4FA591B4919FB7F894611104C072
:101960008C913095382302C0EC913E2B3C939FBF65
:101970000895CF93DF9390E0FC01E752FA4F249152
:10198000FC01EB53FA4F8491882361F190E0880FBA
:10199000991FFC01EF54FA4FC591D491FC01E55415
:1019A000FA4FA591B491611109C09FB7F89488814D
:1019B000209582238883EC912E230BC0623061F442
:1019C0009FB7F8948881322F309583238883EC91D8
:1019D0002E2B2C939FBF06C08FB7F894E8812E2B37
:1019E00028838FBFDF91CF9108953FB7F8948091FE
:1019F000650290916602A0916702B091680226B5D7
:101A0000A89B05C02F3F19F00196A11DB11D3FBF36
:101A1000BA2FA92F982F8827820F911DA11DB11DC4
:101A2000BC01CD0142E0660F771F881F991F4A95C0
:101A3000D1F708952FB7F894609161027091620216
:101A400080916302909164022FBF08951F920F92BC
:101A50000FB60F9211242F933F938F939F93AF93C1
:101A6000BF938091610290916202A0916302B09154
:101A700064023091600223E0230F2D3720F4019699
:101A8000A11DB11D05C026E8230F0296A11DB11DA1
:101A9000209360028093610290936202A09363029C
:101AA000B09364028091650290916602A0916702F2
:101AB000B09168020196A11DB11D809365029093BB
:101AC0006602A0936702B0936802BF91AF919F91A5
:101AD0008F913F912F910F900FBE0F901F901895EF
:101AE000CF93DF93CDB7DEB766970FB6F894DEBF1E
:101AF0000FBECDBF789484B5826084BD84B581600B
:101B000084BD85B5826085BD85B5816085BD8091C8
:101B10006E00816080936E00109281008091810040
:101B20008260809381008091810081608093810038
:101B3000809180008160809380008091B1008460FA
:101B40008093B1008091B00081608093B00080915B
:101B50007A00846080937A0080917A00826080931A
:101B60007A0080917A00816080937A0080917A0077
:101B7000806880937A001092C100E091BB01F091DF
:101B8000BC0182E08083E091B701F091B80110823E
:101B9000E091B901F091BA0180E180831092C30114
:101BA000E091BF01F091C00186E08083E091BD012A
:101BB000F091BE01808180618083E091BD01F09150
:101BC000BE01808188608083E091BD01F091BE01FB
:101BD000808180688083E091BD01F091BE018081A9
:101BE0008F7D80830E94D60A83E994E00E94DE0AFA
:101BF00061E088E00E94B90C61E089E00E94B90CC4
:101C000061E08AE00E94B90C61E088E00E946C0CFF
:101C100061E089E00E946C0C61E08AE00E946C0C3B
:101C200062E082E00E94B90C62E087E00E94B90C99
:101C300062E084E00E94B90C62E086E00E94B90C88
:101C400062E085E00E94B90C61E083E00E94B90C7B
:101C50008CE894E00E94DE0A87B18F6087B9F8941F
:101C600088B1807F88B978940E94F50C60938301D5
:101C70007093840180938501909386018091520135
:101C80000E94B80983E894E00E94DE0AADE6B1E064
:101C9000EEE8F1E011921D9221E0E639F207D1F76A
:101CA0008DE794E00E94DE0A10925F028CE380933D
:101CB0005E021092B9008CE08093B800109250023E
:101CC00010925102E2E6F4E085919491C82EE4E688
:101CD000F4E0D490E5E6F4E0E491E0935202E6E625
:101CE000F4E0E491E0935302E7E6F4E0E491E0935A
:101CF00054028C01802F8C198D1548F4F8016491E1
:101D00008CE492E00E94B0060F5F1F4FF3CF8CE48B
:101D100092E00E944E0C8CE08093B800E4E7F2E081
:101D2000F0935A02E09359028491E5E7F2E0E491DE
:101D3000F0E0F82B319709F003C6109255028CE4BD
:101D400092E00E944E0C88E794E00E94DE0A6AEF5F
:101D500070E080E090E00E94E1098EE694E00E944D
:101D6000DE0A01E010E010934B0200934A0288E083
:101D700090E00E94B6159093490280934802FC01BE
:101D80001183008321E034E03583248380E090E0F8
:101D90000E94AE068E8B61E080E090E00E941F15ED
:101DA000612C712CC12CD12C80914A0290914B0254
:101DB000A0904802B0904902C816D90608F08FC01A
:101DC000C6010E94050B8C01FE89F13041F0F5013E
:101DD000E60DF71DBC01808191810E94230B80914B
:101DE0004802909149025C01A60CB71CBB8AAA8AE2
:101DF000F501A080B18098012A0D3B1D3D8B2C8BF5
:101E0000190131E0231A3108210145018FEF0FEF4D
:101E10001FEF48145904DCF08201081919091595BF
:101E20000795080D191DC8010E94AE069FEF980F77
:101E30009E3F48F1811105C048014FEF841A940A72
:101E4000E8CF280151E0451A51088FEFE2CF811108
:101E500012C002151305BCF40F5F1F4FC8010E948A
:101E6000AE068823B1F30FC001501109C8010E94CA
:101E7000AE068F3F19F40A151B05B4F702151305BA
:101E800014F40F5F1F4FC8010E94AE0627E030E038
:101E900091E0482F492321F0990F21503109F9CFC2
:101EA0000A191B09F3E0000F111FFA95E1F7020F61
:101EB000131F0F3F6FEF160729F0AC88BD880A0D7E
:101EC0001B1D02C00FEF1FEFEA89FB8913830283FA
:101ED000FFEFCF1ADF0A24E0620E711C65CFCC0C35
:101EE000DD1CCC0CDD1CF501EC0DFD1D8FEF9FEF13
:101EF0009383828381E00E941805109265010E94FD
:101F00001A0D809152010E94B8091092530110924B
:101F10005401109255011092560181E08093000106
:101F20000E94D60A88E694E00E94F90A7AE0472ED9
:101F3000512C612C712CE3E02E2E312C809053011A
:101F400090905401A0905501B090560181149104D5
:101F5000A104B10459F40E94F50C609383017093BD
:101F60008401809385019093860141C00E94F50C05
:101F700000918301109184012091850130918601A7
:101F8000DC01CB01801B910BA20BB30B88159905CB
:101F9000AA05BB0560F1909100018091520199233F
:101FA00011F08F5F01C08150809352010E94F50CA7
:101FB00060938301709384018093850190938601DF
:101FC000809152010E94B8098091890190918A0103
:101FD000A0918B01B0918C010196A11DB11D809340
:101FE000890190938A01A0938B01B0938C01E091B9
:101FF00065018E2F90E08830910508F056C1FC01F4
:10200000EC5CFF4F0C949C150E941A0D009161012D
:10201000109162012091630130916401AB01BC0118
:10202000401B510B620B730B80915F01909160011B
:10203000A0E0B0E084179507A607B707B8F481E0E1
:1020400020915D0130915E01232B09F480E08093A3
:102050008D011092890110928A0110928B011092C9
:102060008C0180E00E944F0A86E020C110928D0111
:102070000E94DA09882399F080915D0190915E01B8
:10208000892B29F481E00E944F0A81E00FC16AEF99
:1020900070E080E091E00E94E10983E007C1809157
:1020A0007101882329F080E00E944F0A82E0FEC07F
:1020B0000E941A0D0091610110916201209163014B
:1020C00030916401DC01CB01801B910BA20BB30B9F
:1020D00081329E44A105B10578F160E088E00E945C
:1020E0006C0C8CE492E00E944E0C80917A0181117C
:1020F00021C01092A9011092A8011092A70110927C
:10210000A60181E08093020180937A018093790196
:1021100040927B0150927C0160927D0170927E0121
:102120000E941A0D60937F0170938001809381015A
:102130009093820187E0BAC08091590190915A0131
:1021400020915B0130915C012817390709F4B0C078
:1021500090935C0180935B010E94A709A9C00E9433
:10216000DA0981110DC00E94280A809157019091CF
:102170005801892B11F085E001C080E00E94C5095B
:1021800020915B0130915C018091590190915A013D
:102190002817390709F48CC081E00E944F0A88C0D3
:1021A00080917101811184C00E94280A7EC00E9422
:1021B000DA0981117DC080915D0190915E0190935B
:1021C00088018093870120918D01222351F0209175
:1021D000570130915801820F931F9093880180938B
:1021E000870110928D011092890110928A0110923C
:1021F0008B0110928C0181E00E944F0A84E056C04E
:102200008091870190918801A0E0B0E04091890120
:1022100050918A0160918B0170918C014817590788
:102220006A077B0708F444C00E94280A809157017E
:1022300090915801892BC9F185E038C080915701F0
:1022400090915801A0E0B0E04091890150918A013D
:1022500060918B0170918C01481759076A077B07C1
:1022600038F1A2CF0E94DA0981110FC0809171016B
:1022700081110BC020915B0130915C01809159016B
:1022800090915A012817390799F061E088E00E947F
:102290006C0C80915B0190915C010E94A7096AEF30
:1022A00070E080E090E00E94E10980E00E94C509B2
:1022B0000E941A0D009196011091970120919801AA
:1022C000309199015B016C01A01AB10AC20AD30ACC
:1022D000960185010A3011052105310550F48091E0
:1022E000AA0191E0980F9093AA018F7009F025C37D
:1022F0002BC029B160939601709397018093980148
:1023000090939901EEE8F1E0ADE6B1E080E090E075
:1023100030E071E06081660FA901082E02C055957A
:1023200047950A94E2F740FF616060834191411153
:1023300002C01C9203C04F3F09F47C930196119692
:102340008830910539F7CBCF8BEA91E00E94870363
:10235000892B09F47AC18BEA91E00E946503182F5A
:102360008A8B0E941A0D4B015C010E941A0D20916C
:102370009C0130919D0140919E0150919F01DC0193
:10238000CB01821B930BA40BB50B813D9740A1059C
:10239000B10540F080919A0190919B0103970397BA
:1023A00008F4D2C280929C0190929D01A0929E015D
:1023B000B0929F0180919A0190919B018330910589
:1023C00091F018F4892B39F06AC08430910509F135
:1023D0000597D1F164C01B3109F068C030929B01B0
:1023E00020929A0132C11B3539F444E050E05093F9
:1023F0009B0140939A0129C11F3439F465E070E0D4
:1024000070939B0160939A0120C11B3109F047C072
:102410004DC01F3499F310929B0110929A01113410
:1024200019F47BEF7A8B42C0123419F48CEF8A8B4B
:102430003DC0133419F49EEF9A8B38C0143409F060
:1024400004C1EDEFEA8B32C010929B0110929A0109
:10245000113439F3123451F3133469F3143489F31A
:102460001D3411F186E9810F803108F0EEC081E161
:10247000EAE3F1E0DE01119601900D928A95E1F711
:10248000E12F110FFF0BEA56F109AA24A394B12CF6
:10249000AC0EBD1EEA0DFB1DB080BA8A07C01092BB
:1024A0009B0110929A01D1C02AE02A8B80910101F0
:1024B00087FD6EC03A893D3011F03A30A9F50E948F
:1024C000D60A80916C01882349F186E691E00E944A
:1024D000E8148C01609101014FE06403B001112404
:1024E00067557B4F4FE050E0CE0101960E940615E4
:1024F00088859985081719073CF02A853B85C8010E
:10250000201731070CF4C90120910101293034F45E
:10251000EA81FB81309711F0918380830E949B09AF
:102520005FEF509301018FC06A896830B9F4E09180
:102530006C01EE2379F0E150E0936C01F0E0EA5990
:10254000FE4F108288E00E94670C80E20E94670CB8
:1025500088E001C087E00E94670C77C0AA888A2DB6
:102560000A2C000C990BC0970A9708F06EC01091C6
:102570006C01153078F78A2D0E94670C81E0810F7D
:1025800080936C01E12FF0E0EA59FE4FA0825DC01C
:1025900009EA14E0C12CD12C4FE050E0B801CE0183
:1025A00001960E9406158981BA88B81242C08091AE
:1025B000010187FD05C00E94D60A2FEF209301017B
:1025C0008A819B81892B39F18C819D810E94D00861
:1025D00086EA94E00E94DE0A4885598560E070E052
:1025E0002AE08BEA91E00E94FA0583EA94E00E94D7
:1025F000DE0A4A855B8560E070E02AE08BEA91E0C4
:102600000E94FA058FE994E00E94DE0A0E949B096D
:10261000C09201011AC0EE85FF85309751F00995EF
:102620008C819D810E94D00889E994E00E94F90A7A
:102630000CC03FEFC31AD30A015F1F4F49E0C41615
:10264000D10409F0A9CF0E94DE080E941A0D4B01A7
:102650005C018091A501813081F120F0823009F484
:1026600052C08AC080917301882381F08092A101B9
:102670009092A201A092A301B092A4011092A00195
:1026800081E090E00E94B90881E014C0809172015D
:10269000882309F473C08092A1019092A201A092B4
:1026A000A301B092A4011092A0018FEF9FEF0E94AE
:1026B000B90882E08093A50161C080917301811106
:1026C00002C01092A5018091A1019091A201A09158
:1026D000A301B091A401A5019401281B390B4A0B59
:1026E0005B0BDA01C901853F9140A105B1050CF4EE
:1026F00045C0D090A0010D2D10E0075F1E4FF801DE
:10270000808190E027C080917201811102C01092F7
:10271000A5018091A1019091A201A091A301B09186
:10272000A401A5019401281B390B4A0B5B0BDA01AC
:10273000C901853F9140A105B10504F1D090A001E8
:102740000D2D10E0075F1E4FF801808190E09195FC
:10275000819591090E94B908F8018181882319F0B7
:10276000D394D092A0018092A1019092A201A09254
:10277000A301B092A40102C01092A5010E941A0DFB
:1027800000917F011091800120918101309182019F
:102790004B015C01801A910AA20AB30A00917B01E5
:1027A00010917C0120917D0130917E01801691066F
:1027B000A206B30608F4C1C060937F017093800144
:1027C000809381019093820180917A01882309F49A
:1027D0008AC08091A8019091A9019C01220F331F0A
:1027E0002F5F3F4F609102014091A6015091A701D8
:1027F000662371F0240F351F3093A7012093A601A3
:102800008E3F910519F41092020114C001960EC07A
:102810005A01A21AB30AB092A701A092A60100978A
:1028200021F481E08093020105C001979093A901F2
:102830008093A801E090A701F12C61E083E00E9461
:10284000B90CE114F10411F460E005C02FEFE216B9
:10285000F10429F461E083E00E946C0C6EC0E0EFAB
:10286000F5E084918330F9F048F48130B9F082309A
:10287000A1F584B5806284BDE8BC5FC08730E9F013
:10288000883019F1843049F580918000806280930E
:102890008000F0928B00E0928A004FC084B580687F
:1028A00084BDE7BC4AC0809180008068809380002E
:1028B000F0928900E092880040C08091B00080686A
:1028C0008093B000E092B30038C08091B000806285
:1028D0008093B000E092B40030C0F0E8EF16F1044D
:1028E0000CF0B8CFB1CF80917901882371F00091BD
:1028F00077011091780101151105F9F060E083E08E
:102900000E946C0C109279010EC00091750110911B
:1029100076010115110589F061E083E00E946C0CDD
:1029200081E08093790120E030E000937B011093F7
:102930007C0120937D0130937E010E942E04FECA0B
:1029400081E080935502FBC910929B0110929A017D
:1029500029CDEBEAF1E01382128288EE93E0A0E049
:10296000B0E084839583A683B7838EE191E0918361
:10297000808385EC90E09587848784EC90E097874E
:10298000868780EC90E0918B808B81EC90E0938B3C
:10299000828B82EC90E0958B848B86EC90E0978B19
:1029A000868B118E128E138E148E10924B02109203
:1029B0004A02ECE4F2E0138212821486168615862F
:1029C000178681E0808B80E391E091838083089576
:1029D000FC0188279927E89421912032E9F32930D6
:1029E00010F02E30C8F32B3241F02D3239F46894B8
:1029F00004C00E940F15820F911D219120532A308F
:102A0000C0F31EF4909581959F4F0895FB01DC0162
:102A100002C005900D9241505040D8F708957AE0D9
:102A2000979F902D879F802D910D11240895F999DE
:102A3000FECF92BD81BDF89A992780B50895262FC3
:102A4000F999FECF1FBA92BD81BD20BD0FB6F89493
:102A5000FA9AF99A0FBE01960895052E97FB1EF477
:102A600000940E94441557FD07D00E94571507FC9B
:102A700003D04EF40C944415509540953095219513
:102A80003F4F4F4F5F4F089590958095709561959A
:102A90007F4F8F4F9F4F08950E947915A59F900DEE
:102AA000B49F900DA49F800D911D11240895A1E263
:102AB0001A2EAA1BBB1BFD010DC0AA1FBB1FEE1FB8
:102AC000FF1FA217B307E407F50720F0A21BB30B03
:102AD000E40BF50B661F771F881F991F1A9469F77F
:102AE00060957095809590959B01AC01BD01CF01DB
:102AF0000895A29FB001B39FC001A39F700D811DD7
:102B00001124911DB29F700D811D1124911D0895F6
:102B100097FB072E16F4009407D077FD09D00E948A
:102B2000A21507FC05D03EF4909581959F4F08951E
:102B3000709561957F4F0895EE0FFF1F0590F491FA
:102B4000E02D0994AA1BBB1B51E107C0AA1FBB1FA4
:102B5000A617B70710F0A61BB70B881F991F5A9529
:102B6000A9F780959095BC01CD0108950F931F930F
:102B7000CF93DF938230910510F482E090E0E091F2
:102B80006B02F0916C0220E030E0A0E0B0E0309702
:102B900019F1408151810281138148175907C8F00A
:102BA0008417950769F4109731F012960C931297D9
:102BB00013961C9327C000936B0210936C0222C0E3
:102BC0002115310519F04217530718F49A01BD0178
:102BD000EF01DF01F801DBCF21153105F9F0281BEA
:102BE000390B2430310580F48A819B816115710590
:102BF00021F0FB019383828304C090936C02809345
:102C00006B02FE01329644C0FE01E20FF31F819376
:102C1000919322503109398328833AC02091690267
:102C200030916A02232B41F4209105013091060175
:102C300030936A02209369022091030130910401CC
:102C40002115310541F42DB73EB740910701509150
:102C50000801241B350BE0916902F0916A02E2172A
:102C6000F307A0F42E1B3F0B2817390778F0AC01AF
:102C70004E5F5F4F2417350748F04E0F5F1F50938C
:102C80006A02409369028193919302C0E0E0F0E010
:102C9000CF01DF91CF911F910F910895CF93DF93D3
:102CA000009709F481C0FC01329713821282A0912F
:102CB0006B02B0916C02109781F420813181820FF8
:102CC000931F2091690230916A022817390751F544
:102CD000F0936A02E093690267C0ED0120E030E002
:102CE000CE17DF0740F44A815B819E0141155105F3
:102CF000F1F0EA01F5CFD383C28340815181840F83
:102D0000951FC817D90759F488819981840F951F99
:102D10000296918380838A819B819383828321158C
:102D2000310529F4F0936C02E0936B023DC0E90198
:102D3000FB83EA8349915991C40FD51FEC17FD0716
:102D400061F480819181840F951F0296E901998336
:102D50008883828193819B838A83E0E0F0E01296EE
:102D60008D919C911397009719F0FD01DC01F7CF2D
:102D70008D919C9111979D012E5F3F4F820F931F64
:102D80002091690230916A022817390769F4309757
:102D900029F410926C0210926B0202C0138212820C
:102DA000B0936A02A0936902DF91CF91089581E008
:0C2DB00090E0F8940C94DC16F894FFCF2F
:102DBC0001FF0100006D028000010102050A1432BE
:102DCC006400040C080A0203010500000000BF03A4
:102DDC002C0356030C0487036503790300000000E1
:102DEC001F072C0313051205B9042A2B2C2D2E2F8B
:0E2DFC0030313233343536373839000D0A00A5
:107800000C94343C0C94513C0C94513C0C94513CE1
:107810000C94513C0C94513C0C94513C0C94513CB4
:107820000C94513C0C94513C0C94513C0C94513CA4
:107830000C94513C0C94513C0C94513C0C94513C94
:107840000C94513C0C94513C0C94513C0C94513C84
:107850000C94513C0C94513C0C94513C0C94513C74
:107860000C94513C0C94513C11241FBECFEFD8E036
:10787000DEBFCDBF11E0A0E0B1E0ECE9FFE702C060
:1078800005900D92A230B107D9F712E0A2E0B1E065
:1078900001C01D92AD30B107E1F70E942D3D0C945F
:1078A000CC3F0C94003C982F959595959595959582
:1078B000905D8F708A307CF0282F295A8091C0000B
:1078C00085FFFCCF9093C6008091C00085FFFCCF60
:1078D0002093C6000895282F205DF0CF982F809127
:1078E000C00085FFFCCF9093C6000895EF92FF92F1
:1078F0000F931F93EE24FF2487018091C00087FD22
:1079000017C00894E11CF11C011D111D81E4E8164B
:1079100082E4F8068FE0080780E0180770F3E09132
:107920000401F091050109958091C00087FFE9CF1E
:107930008091C6001F910F91FF90EF9008950E94D3
:10794000763C982F8091C00085FFFCCF9093C600B5
:1079500091362CF490330CF09053892F089597555D
:10796000892F08951F930E949F3C182F0E949F3CCF
:107970001295107F810F1F9108951F93182F882350
:1079800021F00E94763C1150E1F71F9108951F935A
:10799000182F0E94763C803249F0809103018F5F5E
:1079A000809303018530C1F01F9108958091C0003C
:1079B00085FFFCCF84E18093C6008091C00085FFE5
:1079C000FCCF1093C6008091C00085FFFCCF80E102
:1079D0008093C6001F910895E0910401F091050184
:1079E00009951F9108950E94763C803241F0809164
:1079F00003018F5F80930301853081F008958091AA
:107A0000C00085FFFCCF84E18093C6008091C00058
:107A100085FFFCCF80E18093C6000895E0910401CA
:107A2000F09105010995089540E951E08823A1F0FE
:107A30002D9A28EE33E0FA013197F1F721503040CA
:107A4000D1F72D9828EE33E0FA013197F1F7215064
:107A50003040D1F7815061F708953F924F925F9285
:107A60006F927F928F929F92AF92BF92CF92DF924E
:107A7000EF92FF920F931F93CF93DF93000080E16B
:107A80008093C4001092C50088E18093C10086E015
:107A90008093C2005098589A259A81E00E94143D24
:107AA00024E1F22E9EE1E92E85E9D82E0FE0C02ECA
:107AB00010E1B12EAA24A394B1E49B2EA6E58A2E50
:107AC000F2E57F2EE0E26E2E79E4572E63E5462E36
:107AD00050E5352E0E94763C8033B1F18133B9F107
:107AE000803409F46FC0813409F476C0823409F41B
:107AF00085C0853409F488C0803531F1823521F1A3
:107B0000813511F1853509F485C0863509F48DC0BC
:107B1000843609F496C0843709F403C1853709F423
:107B200072C1863709F466C0809103018F5F80932C
:107B30000301853079F6E0910401F0910501099582
:107B40000E94763C803351F60E94F33CC3CF0E94E2
:107B5000763C803249F78091C00085FFFCCFF092DF
:107B6000C6008091C00085FFFCCF9092C600809136
:107B7000C00085FFFCCF8092C6008091C00085FFC9
:107B8000FCCF7092C6008091C00085FFFCCF609250
:107B9000C6008091C00085FFFCCF5092C600809146
:107BA000C00085FFFCCF4092C6008091C00085FFD9
:107BB000FCCF3092C6008091C00085FFFCCFB09210
:107BC000C60088CF0E94763C863808F4BDCF0E945C
:107BD000763C0E94F33C7ECF0E94763C803809F4CC
:107BE0009CC0813809F40BC1823809F43CC1883942
:107BF00009F48FC080E00E94C73C6CCF84E10E94F2
:107C0000BD3C0E94F33C66CF85E00E94BD3C0E94D3
:107C1000F33C60CF0E94763C809306010E94763C44
:107C2000809307010E94F33C55CF0E94763C80333D
:107C300009F41DC183E00E94BD3C80E00E94C73C66
:107C400049CF0E94763C809309020E94763C809343
:107C5000080280910C028E7F80930C020E94763C79
:107C6000853409F415C18091080290910902892B8D
:107C700089F000E010E00E94763CF801E85FFE4FDA
:107C800080830F5F1F4F80910802909109020817AF
:107C9000190788F30E94763C803209F045CF809125
:107CA0000C0280FF01C16091060170910701660F0F
:107CB000771F7093070160930601A0910802B091AD
:107CC00009021097C9F0E8E0F1E09B01AD014E0F09
:107CD0005F1FF999FECF32BD21BD819180BDFA9A17
:107CE000F99A2F5F3F4FE417F50799F76A0F7B1F4B
:107CF00070930701609306018091C00085FFFCCF5F
:107D0000F092C6008091C00085FFFCCFB092C60003
:107D1000E1CE83E00E94C73CDDCE82E00E94C73CFA
:107D2000D9CE0E94763C809309020E94763C8093D3
:107D300008028091060190910701880F991F909386
:107D40000701809306010E94763C853409F4A6C0A1
:107D500080910C028E7F80930C020E94763C8032D0
:107D600009F0B8CE8091C00085FFFCCFF092C6002C
:107D7000609108027091090261157105B9F140E046
:107D800050E080910C02A82FA170B82FB27011C0E2
:107D9000BB2309F45CC0E0910601F0910701319624
:107DA000F0930701E09306014F5F5F4F46175707B7
:107DB000E8F4AA2369F3F999FECF209106013091E6
:107DC000070132BD21BDF89A90B58091C00085FFB2
:107DD000FCCF9093C6002F5F3F4F30930701209355
:107DE00006014F5F5F4F4617570718F38091C00099
:107DF00085FDE5CE8091C00085FFF8CFE0CE81E023
:107E00000E94C73C67CE0E94763C803209F08CCE3F
:107E10008091C00085FFFCCFF092C6008091C00029
:107E200085FFFCCFE092C6008091C00085FFFCCFAB
:107E3000D092C6008091C00085FFFCCFC092C600E2
:107E40008091C00085FFFCCFB092C60043CEE09188
:107E50000601F091070194918091C00085FFFCCF4D
:107E60009093C6009CCF80E10E94C73C33CE0E9415
:107E7000763C0E94763C182F0E94763C112309F430
:107E800083C0113009F484C08FE00E94C73C22CE29
:107E900080910C02816080930C02E5CE80910C02EF
:107EA000816080930C0259CF809107018823880F4D
:107EB000880B8A2180930B02809106019091070123
:107EC000880F991F90930701809306018091080203
:107ED00080FF09C080910802909109020196909359
:107EE000090280930802F894F999FECF1127E091D6
:107EF0000601F0910701C8E0D1E08091080290915D
:107F00000902103091F40091570001700130D9F34B
:107F100003E000935700E89500915700017001308D
:107F2000D9F301E100935700E89509901990009169
:107F3000570001700130D9F301E000935700E89534
:107F40001395103498F011270091570001700130FB
:107F5000D9F305E000935700E895009157000170B0
:107F60000130D9F301E100935700E895329602976A
:107F700009F0C7CF103011F00296E5CF112480919F
:107F8000C00085FFB9CEBCCE8EE10E94C73CA2CD19
:0C7F900085E90E94C73C9ECDF894FFCF0D
:027F9C00800063
:040000030000780081
:00000001FF
