:100000000C94A3040C94CB040C94CB040C94CB045C
:100010000C94CB040C94CB040C94CB040C94CB0424
:100020000C94CB040C94CB040C94CB040C94CB0414
:100030000C94CB040C9408090C94CB040C94CB04C2
:100040000C948E110C94CB040C94D6080C94B0082C
:100050000C94CB040C94CB040C94CB040C94CB04E4
:100060000C942F090C94CB04F914761597159E1552
:10007000C315C914D915E515456E746572206E65F2
:10008000772076616C7565207573696E6720302DF9
:10009000392C206261636B73706163652C20656E1F
:1000A0007465722E0053656C656374207573696E98
:1000B00067206F6E65206F663A20003A20004A750F
:1000C0006C2031322032303139004669726D7761EF
:1000D000726520636F6D70696C6564200065657082
:1000E000726F6D20696E697400000007000F0017C1
:1000F000001F0027002F0037003F00470050005826
:10010000006000690072007B0084008D009700A0F1
:1001100000AA00B500BF00CA00D500E100ED00F95B
:100120000006011301210130013F013F013F013F62
:10013000013F013F013F013F013F013F013F013FBF
:10014000013F013F013F013F013F013F013F013FAF
:10015000013F013F013F013F013F013F013F013F9F
:10016000013F013F013F013F013F013F013F013F8F
:10017000013F013F013F013F013F013F013F013F7F
:10018000013F013F013F013F013F013F013F013F6F
:10019000013F013F013F013F013F013F013F013F5F
:1001A000013F013F013F013F013F013001210113A8
:1001B000010601F900ED00E100D500CA00BF00B55D
:1001C00000AA00A00097008D0084007B00720069E7
:1001D0000060005800500047003F0037002F002704
:1001E000001F0017000F000700000007000F001796
:1001F000001F0027002F0037003F00470050005825
:10020000006000690072007B0084008D009700A0F0
:1002100000AA00B500BF00CA00D500E100ED00F95A
:100220000006011301210130013F013F013F013F61
:10023000013F013F013F013F013F013F013F013FBE
:10024000013F013F013F013F013F013F013F013FAE
:10025000013F013F013F013F013F013F013F013F9E
:10026000013F013F013F013F013F013F013F013F8E
:10027000013F013F013F013F013F013F013F013F7E
:10028000013F013F013F013F013F013F013F013F6E
:10029000013F013F013F013F013F013F013F013F5E
:1002A000013F013F013F013F013F013001210113A7
:1002B000010601F900ED00E100D500CA00BF00B55C
:1002C00000AA00A00097008D0084007B00720069E6
:1002D0000060005800500047003F0037002F002703
:1002E000001F0017000F000700020606060606069C
:1002F000060606060606060606060606060606069E
:10030000060606060606060606060606060606068D
:10031000060606060606060606060606060606067D
:100320000606060606060606060405050505050575
:10033000050505050505050505050505050505056D
:10034000050505050505050505050505050505055D
:10035000050505050505050505050505050505054D
:100360000505050505050505050109090909090929
:1003700009090909090909090909090909090909ED
:1003800009090909090909090909090909090909DD
:1003900009090909090909090909090909090909CD
:1003A000090909090909090909080A0A0A0A0A0AB8
:1003B0000A0A0A0A0A0A0A0A0A0A0A0A0A0A0A0A9D
:1003C0000A0A0A0A0A0A0A0A0A0A0A0A0A0A0A0A8D
:1003D0000A0A0A0A0A0A0A0A0A0A0A0A0A0A0A0A7D
:1003E0000A0A0A0A0A0A0A0A0A00030C0F30333CF6
:1003F0003FC0C3CCCFF0F3FCFFAED580A81FD30025
:10040000408D142002A1C8DA02817FD9F1DB40A41B
:10041000A6AF746869730048656C70007361766597
:1004200020746F206E6F6E2D766F6C6174696C65D1
:10043000206D656D6F727900536176652070726F03
:1004400066696C650072657665727420746F2073DE
:100450006176656400526573746F72652070726FA7
:1004600066696C65006163746976652070726F6699
:10047000696C650050726F66696C65206E756D629F
:100480006572006D6963726F737465707320706557
:10049000722066756C6C20737465702E2076616CAA
:1004A00069642076616C7565732061726520312CFA
:1004B00020322C20342C20352C2031362C20333285
:1004C0002C2036342E00004D6963726F7374657092
:1004D00070696E67006E756D626572206F6620735D
:1004E0007465707320746F2070756C6C206261632A
:1004F0006B2E206966203020646F6E277420707523
:100500006C6C206261636B2E0050756C6C62616371
:100510006B2073746570730074696D6520746F204F
:100520007761697420616674657220666F727761A5
:100530007264206D6F74696F6E206265666F72659C
:100540002070756C6C696E67206261636B2E006D44
:10055000696C6C697365630050756C6C6261636B88
:100560002064656C617900737065656420776865E7
:100570006E206261636B7761726420627574746F60
:100580006E20707265737365642E004261636B77D1
:10059000617264207370656564006E756D6265726A
:1005A000206F6620737465707320746F206D6F7692
:1005B00065207768656E20666F727761726420626D
:1005C0007574746F6E20707265737365642E206924
:1005D000662030206B6565700D0A206D6F76696E40
:1005E0006720756E74696C20666F72776172642023
:1005F000627574746F6E2069732072656C656173C7
:1006000065642E00737465707300466F7277617253
:100610006420737465707300737065656420776817
:10062000656E20666F727761726420627574746F94
:100630006E20707265737365642E007374657073D9
:100640002F73656300466F72776172642073706503
:100650006564000EF91118300B100D0F0F110F10FB
:100660001010100480F0FC7E0E0F070707070F1E06
:100670007EFCF080FFFFFF00000000000000000093
:1006800000FFFFFF010F3F7E70F0E0E0E0E0F07060
:100690007E3F0F01383838383CFFFFFF0000000074
:1006A000000000000000FFFFFF0000000000E0E08D
:1006B000E0E0E0FFFFFFE0E0E0E0E0001E0E0E07FC
:1006C000070707070F1EFEFCF00000000000008077
:1006D000C0E0F0783E1F070100F0F8FCFEEFE7E312
:1006E000E1E0E0E0E0E0E0E0001E0E0E07070707B3
:1006F00007070F1EFEFCF800000000001C1C1C1C5D
:100700001E3677F3E1C0787070F0E0E0E0E0E0F0F2
:1007100070783F1F0F000000000080C0F0F87C1EC2
:10072000FFFFFF000000E0F0FCFEDFC7C3C1C0C058
:10073000C0FFFFFFC0C0C0010101010101010101B3
:100740000101FFFFFF01010100FFFFFF070707078E
:1007500007070707070707001F1F0F0E0E0E0E0ED5
:100760001E1C3CF8F8E0787070F0E0E0E0E0E0F0AB
:10077000707C3F1F0700C0F0F83C1E0E0E070707F5
:1007800007070F0000FEFFFF1C1C0E0E0E0E0E0EC4
:100790001E3CF8F8E0030F3F7C78F0E0E0E0E0E09A
:1007A00070783F1F070707070707070707070707AF
:1007B00087E7FF7F1F00000000000000C0F0FC3F43
:1007C0000F07010000000080E0F8FC3F0F0300006D
:1007D000000000000000F0FCFE0E0F070707070FE7
:1007E0001EFEFCF80080E0F3771F0E0E0C1C1C1C94
:1007F0003E77F3E0800F1F3F7870F0E0E0E0E0E04C
:1008000070783F1F0FE0F8FC1E0E07070707070F61
:100810001E3EFCF0C0071F1F3C7870707070707037
:100820003838FFFF7F0000F0E0E0E0E0E070707833
:100830003C1F0F0300C0C0C0C003030303F0F0F06F
:10084000F0F9031980200072656164790020646FFB
:100850006E65005D3F20002E2E00205B0066D601F5
:1008600045063B060000F4011806000073DA010A91
:10087000060406000010279A05000062BF018B05E0
:100880003B060100F4016705000064DC0158054FD8
:1008900005000010271805000070D40109050406A2
:1008A00000001027D50400006DC101C704C6040173
:1008B0000040008304810C6EBD017404C604000076
:1008C00004006504000072000055040000000000F0
:1008D00000450422077700003804000000000000F3
:1008E0001C04BB0768000017040000000000001291
:1008F00004410D00000000240027002A0000000031
:1009000000250028002B000404040404040404024D
:10091000020202020203030303030301020408109C
:100920002040800102040810200102040810200069
:10093000000008000201000003040700000000009E
:1009400000000000691911241FBECFEFD8E0DEBF00
:10095000CDBF11E0A0E0B1E0E4E5F7E302C005900F
:100960000D92AA35B107D9F723E0AAE5B1E001C09D
:100970001D92AD33B207E1F714E0C3EAD4E004C03E
:100980002197FE010E94681AC23AD107C9F70E9456
:10099000D8110C94A81B0C940000CF92DF92EF9218
:1009A000FF920F931F93CF93DF936C017A018B011A
:1009B000C0E0D0E0CE15DF0581F0D8016D918D014A
:1009C000D601ED91FC910190F081E02DC6010995D1
:1009D000892B11F02196EECF7E01C701DF91CF91D7
:1009E0001F910F91FF90EF90DF90CF900895FC0141
:1009F000538D448D252F30E0842F90E0821B930B84
:100A0000541710F0CF96089501970895FC01918D29
:100A1000828D981761F0828DDF01A80FB11D5D9660
:100A20008C91928D9F5F9F73928F90E008958FEFCE
:100A30009FEF0895FC01918D828D981731F0828D82
:100A4000E80FF11D858D90E008958FEF9FEF0895D9
:100A5000FC01918D228D892F90E0805C9F4F821B3D
:100A600091098F739927089588E792E00E942805DD
:100A700021E0892B09F420E0822F0895FC01848D68
:100A8000DF01A80FB11DA35ABF4F2C91848D90E0B8
:100A900001968F739927848FA689B7892C93A08993
:100AA000B1898C91837080648C93938D848D98131D
:100AB00006C00288F389E02D80818F7D80830895B0
:100AC000EF92FF920F931F93CF93DF93EC0181E09E
:100AD000888F9B8D8C8D981305C0E889F98980815A
:100AE00085FD26C0F62E0B8D10E00F5F1F4F0F7394
:100AF0001127E02E8C8DE8120CC00FB607FCFACF40
:100B0000E889F989808185FFF5CFCE010E943E05F5
:100B1000F1CF8B8DFE01E80FF11DE35AFF4FF082FC
:100B20009FB7F8940B8FEA89FB89808180620AC0A5
:100B30009FB7F894EE89FF896083E889F9898081FD
:100B40008370806480839FBF81E090E0DF91CF91CC
:100B50001F910F91FF90EF900895CF93DF93EC01D9
:100B6000888D8823C9F0EA89FB89808185FD05C0CD
:100B7000A889B9898C9186FD0FC00FB607FCF5CF07
:100B8000808185FFF2CFA889B9898C9185FFEDCF4F
:100B9000CE010E943E05E7CFDF91CF91089580E01E
:100BA00090E0892B29F00E94340581110C940000FB
:100BB000089585ED8093BC008091BC0084FDFCCF3E
:100BC00010925302089540919A01262F30E0240F8D
:100BD000311D21323105DCF4209153022430C9F457
:100BE000FC0180E090E0861758F430919A01219141
:100BF000DC01A658BE4FA30FB11D2C930196F3CF75
:100C000080919A01680F60939A0180E0089581E0D5
:100C1000089582E00895089508950895E091C80127
:100C20008091C701E81730F4F0E0E65AFE4F80816A
:100C300090E008958FEF9FEF08959091C801809103
:100C4000C701981750F4E92FF0E0E65AFE4F2081D3
:100C500030E09F5F9093C80102C02FEF3FEFC901C2
:100C600008958091C70190E02091C801821B9109ED
:100C70000895CF92DF92EF92FF920F931F93CF933D
:100C8000DF937C01CB018A0120915402222389F059
:100C9000EB016B01C40ED51ECC15DD0569F0699121
:100CA000D701ED91FC910190F081E02DC7010995EC
:100CB000F3CF642F0E94E305C801DF91CF911F910C
:100CC0000F91FF90EF90DF90CF900895CF93DF9337
:100CD0001F92CDB7DEB76983209154022223D1F051
:100CE00020917702203240F021E030E0FC01338394
:100CF000228380E090E015C080915502E82FF0E05B
:100D0000EA5AFD4F998190838F5F809355028093BB
:100D1000770205C061E0CE0101960E94E30581E003
:100D200090E00F90DF91CF910895CF93DF93EC0186
:100D30009C818E81981768F48F856827E881F981F6
:100D40000084F185E02D42E0CE0109958C818F5F12
:100D50008C83DF91CF9108958091BD019091BE0168
:100D60008530910510F084E090E09093BE0180936F
:100D7000BD018091D6019091D701009739F0853F50
:100D800021E0920728F084EF91E002C081E090E03A
:100D90009093D7018093D6018091DA019091DB0185
:100DA000813127E2920710F080E197E29093DB0116
:100DB0008093DA018091BF019091C001009739F0D2
:100DC000853F21E0920728F084EF91E002C081E0A6
:100DD00090E09093C0018093BF018091DC019091DD
:100DE000DD01813127E2920710F080E197E29093D4
:100DF000DD018093DC018091D4019091D501813196
:100E000027E2920710F080E197E29093D50180935A
:100E1000D4018091C1019091C201009731F08134D9
:100E2000910528F080E490E002C081E090E090938A
:100E3000C2018093C1010895089580E090E0089573
:100E40000E94A31B1F93CF93DF93CDB7DEB7C1548E
:100E5000D1090FB6F894DEBF0FBECDBF182FCE015B
:100E600001960E94271089819A81AB81BC818F3EB7
:100E70009E4BAD4ABE4D89F18FEE9EEBADEABEEDC5
:100E800089839A83AB83BC831D82FE01319685E002
:100E90006DE770E044EF51E022E030E07683658357
:100EA000108A1786528F418F14A213A216A615A678
:100EB00030AF27AB815032968111F0CF8DED90E0AD
:100EC0000E94FE0E809117039091180318161906C0
:100ED00024F4CE0101960E944B0F112331F08D8135
:100EE00090E09093BE018093BD01E091BD01F0912F
:100EF000BE01E530F10510F0E4E0F0E0F093BE0152
:100F0000E093BD01EE0FFF1F81E090E08C0F9D1F6D
:100F1000E80FF91F858196819093D7018093D601C0
:100F2000878590899093DB018093DA01818D928D82
:100F30009093C0018093BF0183A194A19093DD01A0
:100F40008093DC0185A596A59093D5018093D4016B
:100F500087A990AD9093C2018093C1010E94AC0615
:100F6000CF5BDF4F0FB6F894DEBF0FBECDBFDF9172
:100F7000CF911F910895CF93DF93CDB7DEB7C154C2
:100F8000D1090FB6F894DEBF0FBECDBF0E94AC06EC
:100F9000CE0101960E9427108FEE9EEBADEABEEDCA
:100FA00089839A83AB83BC83E091BD01F091BE013C
:100FB000ED83EE0FFF1F81E090E08C0F9D1FE80F87
:100FC000F91F8091D6019091D701968385838091F6
:100FD000DA019091DB01908B87878091BF0190911E
:100FE000C001928F818F8091DC019091DD0194A3EB
:100FF00083A38091D4019091D50196A785A7809174
:10100000C1019091C20190AF87AB8091170390917D
:1010100018031816190624F4CE0101960E944B0FEE
:10102000CF5BDF4F0FB6F894DEBF0FBECDBFDF91B1
:10103000CF9108950F931F93CF93DF93EC01062F69
:10104000142F8A89813120F4882329F0411103C0AB
:101050000E9473101A8A8A89811113C0898991E0CC
:101060009093540280937602109255021092770268
:10107000112311F060E401C060E089E193E00E9477
:101080006606602F89E193E00E946606123021F423
:101090008A898F5F8A8B03C00E9473101A8ADF913E
:1010A000CF911F910F9108958F929F92AF92BF920F
:1010B000EF92FF920F931F93CF93DF93CDB7DEB7DD
:1010C000A1970FB6F894DEBF0FBECDBF7C01FA0129
:1010D000CB0119A2223008F42AE08E010F5D1F4FC8
:1010E000822E912CA12CB12CBF01A50194010E944C
:1010F000231AF901CA01015011096A3014F4605D24
:1011000001C0695CD8016C93232B242B252B61F73C
:101110000115110591F0F80101900020E9F73197D0
:10112000AF01401B510BD701ED91FC910280F3817F
:10113000E02DB801C701099502C080E090E0A196BA
:101140000FB6F894DEBF0FBECDBFDF91CF911F91D8
:101150000F91FF90EF90BF90AF909F908F90089568
:101160001F920F920FB60F9211242F933F934F931C
:101170005F936F937F938F939F93AF93BF93EF93FF
:10118000FF9388E792E00E943E05FF91EF91BF91A7
:10119000AF919F918F917F916F915F914F913F910F
:1011A0002F910F900FBE0F901F9018951F920F92C6
:1011B0000FB60F9211242F938F939F93EF93FF936A
:1011C000E0918802F09189028081E0918E02F09195
:1011D0008F0282FD12C09081809191028F5F8F7388
:1011E00020919202821751F0E0919102F0E0E858CC
:1011F000FD4F958F8093910201C08081FF91EF9107
:101200009F918F912F910F900FBE0F901F90189567
:101210001F920F920FB60F9211242F933F934F936B
:101220005F936F937F938F939F93AF93BF93EF934E
:10123000FF93E0E0F0E00995FF91EF91BF91AF914E
:101240009F918F917F916F915F914F913F912F91DE
:101250000F900FBE0F901F9018950C94E3191F92DA
:101260000F920FB60F9211242F933F934F935F93DA
:101270006F937F938F939F93AF93BF93EF93FF935E
:101280008091B900887F803609F49CC068F5883267
:1012900009F45BC090F4803109F454C038F4882319
:1012A00009F4F6C0883009F44DC0F6C0883109F45D
:1012B0004CC0803209F45DC0EFC0803409F468C0CE
:1012C00048F4803309F455C0883309F0E5C08093B1
:1012D0005102D8C0803509F44FC0883509F45DC08B
:1012E000883409F0D9C0D6C0883909F4C7C0A8F439
:1012F000883709F467C038F4883609F463C080374A
:1013000009F460C0C9C0883809F4B8C0803909F44C
:101310005FC0803809F0C0C05BC0803B09F486C064
:1013200038F4803A09F466C0883A09F47FC0B4C042
:10133000803C09F4A7C0883C09F4A4C0883B09F4A8
:101340008AC0AAC080912E0210C090915002809154
:101350004F02981770F5E091500281E08E0F809354
:101360005002F0E0E15DFD4F80818093BB0085EC91
:1013700086C0809351028EC0E091500281E08E0FB2
:10138000809350028091BB00F0E0E15DFD4F8083CF
:101390009091500280914F026EC0E091500281E026
:1013A0008E0F809350028091BB00F0E0E15DFD4F15
:1013B00080838091520281116DC081E080932D0263
:1013C00084EA61C083E0809353021092BC01CFCFC6
:1013D0008091BC01803208F051C0E091BC0181E0F5
:1013E0008E0F8093BC018091BB00F0E0E456FE4F6D
:1013F0008083BDCF85EC8093BC0010925302809116
:10140000BC01803230F4E091BC01F0E0E456FE4FC4
:1014100010826091BC0170E0E091C301F091C401C1
:101420008CE991E009951092BC0136C084E080936C
:10143000530210929B0110929A01E091C501F09124
:10144000C601099580919A01811105C081E08093C0
:101450009A0110927A01E0919B0181E08E0F8093B6
:101460009B01F0E0E658FE4F80818093BB00909195
:101470009B0180919A01981708F479CF85E88093B1
:10148000BC000AC085EC8093BC001092530204C0DB
:10149000109251020E94D905FF91EF91BF91AF9137
:1014A0009F918F917F916F915F914F913F912F917C
:1014B0000F900FBE0F901F901895DC01ED91FC91DD
:1014C0000084F185E02D40E00994FC018781869538
:1014D00086958695681740F465839385690F6770D4
:1014E000606BCF010C945D0A08950F931F93CF9307
:1014F000FC0126816217A0F4C62F8C0164839085BD
:10150000C90F6C2F6F70CF010E945D0A6C2F62951E
:101510006F706061C801CF911F910F910C945D0AAB
:10152000CF911F910F910895CF92DF92EF92FF928A
:101530000F931F93CF93DF93EC01F62EC42ED22E80
:101540008F81869586958695081710F00FEF080F06
:101550001D2D6F2DCE01011788F00E94750A612F95
:10156000CE010E94650AEF2CCE1430F06F85CE01BB
:101570000E949506E394F8CF1F5FEBCF0E94750A97
:101580006D2DCE01DF91CF911F910F91FF90EF90C4
:10159000DF90CF900C94650A2F923F924F925F920A
:1015A0006F927F928F929F92AF92BF92CF92DF9273
:1015B000EF92FF920F931F93CF93DF93CDB7DEB7D8
:1015C00029970FB6F894DEBF0FBECDBFDC011D9684
:1015D0002D913C911E972115310509F459C1998728
:1015E0008887F9013296449031967491E72EF12C58
:1015F000B7E0EB0EF11C93E0F594E7949A95E1F7D0
:10160000EA823196A4913196E4916A1758F0462FF8
:1016100050E08E2F90E0FC01EA0FF11D4E175F079E
:101620000CF46AC06D3031F460E0888599850E94C1
:10163000750A31C16A3009F02BC160E0888599854F
:101640000E94750AE885F98500890E9DE02C112419
:10165000278126952695269565816E0D8E2D821BF8
:10166000860F9485992309F40EC118160CF00BC14E
:10167000A885B9851B969C911B97890F87701B962F
:101680008C931B972E1915962C9315971D96ED91FB
:10169000FC911E97309769F03396E491F0E037960D
:1016A00083E0F595E7958A95E1F70E9FE02D1124EB
:1016B00001C0E0E00FEF020F0E0FE885F9854681CB
:1016C00041506481CF010E94940AA885B9851C9677
:1016D0008C911C97813009F0DEC01B966C911B9792
:1016E000660F660F660F6F731A966C931A97606495
:1016F000CD010E945D0ACFC0A9014A5F5F4F6A1BFE
:10170000A885B9851996FC9119975096EC91FE9F82
:10171000E02D1124EF83F901A4913196249130E05A
:101720003A2B2230310570F44E9CC0014F9C900D35
:101730001124689F8001699F100D1124040F151F4B
:10174000312C22C0777021F028E0322E371A01C0E8
:10175000312CFA0120E0A0E0B0E0261731F03491FE
:10176000A30FB11D2F5F3196F8CFFA01E20FF11DE3
:101770004490EA9E8001EB9E100DFA9E100D1124FC
:10178000080F191F040F151FA885B9851496BC9161
:10179000BB83E885F985F581FC83842D90E09E83E9
:1017A0008D83812C912CC12CD12CC9829A81C91690
:1017B00008F068C0212C3601BFEF6B1A7B0AE88560
:1017C000F9858089281608F055C0F981F11102C009
:1017D000222079F0A885B9851596BC901597B39409
:1017E0006B81CD010E94750A6B2D888599850E94B9
:1017F000650AA12CB12CA41410F0B12C2FC0F40157
:10180000EA0DFB1DE00FF11F5490332061F0E61448
:10181000F70449F4E52DF0E0032C02C0F595E795B7
:101820000A94E2F75E2EE885F9858089823069F4B2
:10183000E52D2110E295EF70F0E0E751FC4F549058
:10184000652D888599850E949506652D88859985E1
:101850000E949506FFEFAF1ABF0ACDCF8F81B81651
:1018600039F060E0888599850E949506B394F6CF9B
:101870002394A5CF9FEFC91AD90AAD81BE818A0EE4
:101880009B1E93CF6C81888599850E94650A03C051
:1018900080E090E002C081E090E029960FB6F894D5
:1018A000DEBF0FBECDBFDF91CF911F910F91FF9093
:1018B000EF90DF90CF90BF90AF909F908F907F90F0
:1018C0006F905F904F903F902F9008958830B1F0C7
:1018D00030F4813091F0843071F480E10FC08032B7
:1018E00041F0803421F0803131F484E007C081E0A0
:1018F00005C082E003C080E201C080E48093CA0199
:1019000008958091C1019091C2019C01215031093B
:1019100022303105A8F08430910591F0883091058E
:1019200079F08031910561F08032910549F0803481
:10193000910531F082E090E09093C2018093C10163
:101940008091C1010C94660C8091C90120E4280F9C
:1019500090E0FC01E751FD4F3491FC01EE0FFF1FB9
:10196000E751FF4F85919491E22FF0E0EE0FFF1FBA
:10197000E751FF4F45915491F894E8B1E07FE32B94
:10198000E8B9909389008093880050938B0040932E
:101990008A00789408952091D6013091D701820F62
:1019A000931F181619063CF4853F21E0920728F092
:1019B00084EF91E002C081E090E09093D7018093A2
:1019C000D6010895CF93DF93EC01FE018491882323
:1019D00021F00E94CF102196F8CFDF91CF9108958A
:1019E0000F931F93CF93DF93CDB7DEB72F970FB62B
:1019F000F894DEBF0FBECDBF0E94DB0E0DE518E0F0
:101A00004FE050E0B801CE0101960E94D2198BE55B
:101A10000E94CF1089810E94CF108DE50E94CF10C7
:101A200080E20E94CF108C819D810E94E20C80E2B6
:101A30000E94CF10EA81FB81309781F04081518173
:101A400060E070E02AE088E792E00E94540880E2BB
:101A50000E94CF108E819F810E94E20C0E94DB0EBB
:101A6000015F1F4F88E0033F180751F62F960FB60E
:101A7000F894DEBF0FBECDBFDF91CF911F910F91C4
:101A80000895EF92FF920F931F93CF93DF93CDB7FB
:101A9000DEB72F970FB6F894DEBF0FBECDBF0E9402
:101AA000DB0E8AEC90E00E94E30E8EEB90E00E9449
:101AB000FE0E0E94DB0E0DE518E078014FE050E0CD
:101AC000B701CE0101960E94D21989810E94CF10E0
:101AD00080E20E94CF108C819D810E94E20C8BEBF2
:101AE00090E00E94E30E8C859D850E94E20C0E948E
:101AF000DB0E8FE0E80EF11C83EFE81688E0F806B5
:101B0000E9F60E94DB0E85EA90E00E94E30E4FE0CA
:101B100050E0B801CE0101960E94D21989810E943D
:101B2000CF1080E20E94CF10015F1F4F88E0033F7B
:101B3000180769F70E94DB0E88E790E00E94FE0E0E
:101B40002F960FB6F894DEBF0FBECDBFDF91CF91B9
:101B50001F910F91FF90EF90089580E0E82FF0E043
:101B6000ED51FE4F10828F5F8630C1F71092E90170
:101B70000895CF93DF932091D301222369F0EC01E4
:101B80000E945810AE0160E070E02AE085E293E028
:101B9000DF91CF910C945408DF91CF9108959091EB
:101BA000E201981781F08093E201882311F08530DB
:101BB00051F40E9482116093DE017093DF018093E3
:101BC000E0019093E10108958091F101811102C03B
:101BD0008091EC0108951092F7019C01629FC00171
:101BE000639F900D729F900D1124892F99279093D8
:101BF000F3018093F201681B790B7093F5016093F8
:101C0000F4010E9482116093FC017093FD018093A6
:101C1000FE019093FF018091F2019091F301892BD5
:101C200061F061E083E00E94D41081E08093F601CE
:101C30008091F2019091F3010AC060E083E00E947C
:101C4000D4101092F6018091F4019091F501A0E07A
:101C5000B0E08093F8019093F901A093FA01B0935A
:101C6000FB0108951092CF011092D0011092D10182
:101C70001092D2016AEF70E080E090E00E94EB0DDC
:101C80008091D6019091D7012091D8013091D9014E
:101C90002817390731F09093D9018093D8010C941B
:101CA000B90D0895CF93C82F882329F08091D601CC
:101CB0009091D70104C08091BF019091C001209103
:101CC000D8013091D9018217930731F09093D9014F
:101CD0008093D8010E94B90D2091D8013091D9018B
:101CE0002115310549F41092CF011092D0011092C4
:101CF000D1011092D2011CC040E050E060E472E4D7
:101D00008FE090E00E94F9192093CF013093D00129
:101D10004093D1015093D201C09301010E945D1103
:101D20006093CB017093CC018093CD019093CE0151
:101D3000A091D801B091D90126E03FEF4FEF5FEFBE
:101D40000E94181A24EF31E040E050E00E94F91997
:101D5000CA01B9016C507E4F8F4F9F4F80E490E0D5
:101D6000CF910C94EB0D0F931F93CF93DF93EC0166
:101D7000162F22E030E0062F0095FD9AFC98FB9884
:101D8000D2BDC1BD10BD8FB7F894F999FECFFA9AB4
:101D9000F99A8FBFF999FECF2230310539F4CE017F
:101DA0000E942D0921E030E0802339F7DF91CF91A7
:101DB0001F910F91089542E050E066E571E088E7D9
:101DC00092E00C94CD040F931F93CF93DF938C017B
:101DD000C0E0D0E0F801EC0FFD1F6491662341F0F4
:101DE00088E792E00E946005892B11F02196F2CFDE
:101DF000CE01DF91CF911F910F910895CF93DF9383
:101E00000E94E30EEC010E94DB0E8C0F9D1FDF9100
:101E1000CF910895E0911503F09116030196880F74
:101E2000991F880F991FE80FF91FDF011497808110
:101E300091812D913C91821B930B69E070E00E948F
:101E4000541A892B11F4CB010895CB010196089502
:101E50000F931F93CF93DF93EC018C01060F171F95
:101E6000C017D1079CF4CE010E942D098F3F61F06D
:101E7000FC9AFD98FB98D2BDC1BD8FB7F894F99933
:101E8000FECFFA9AF99A8FBF2196EACFDF91CF91D0
:101E90001F910F9108954F925F926F927F928F9250
:101EA0009F92AF92BF92CF92DF92EF92FF920F93E9
:101EB0001F93CF93DF934C0180E090E00E940A0FC4
:101EC0008C018091170390911803181619060CF0D5
:101ED000ABC0E0901503F0901603F70144805580E5
:101EE000A080B180C2018A199B09801B910B8134AB
:101EF00091050CF499C0C281D381CF3FFFEFDF077A
:101F000021F4E801CA0DDB1D21976E0120E4C21AFD
:101F1000D1083401CC15DD050CF486C0C6010E9441
:101F20002D09F40191914F01FFEFCF1ADF0A8917B4
:101F300089F3CE018E5B9F4F481659060CF072C094
:101F4000B801C5010E94280FF701C081D181C00FDF
:101F5000D11FD7FD69C07E015E01F1E4AF0EB11C57
:101F6000F301D1903F01C7010E94E319D81621F077
:101F70006D2DC7010E94EB19FFEFEF1AFF0AEA145B
:101F8000FB0471F7E0901503F0901603CE01805C1E
:101F90009F4FF7019383828380819181080F191FDE
:101FA000C01BD10B8E01D7FF02C0095F1F4F83E01A
:101FB000159507958A95E1F7F8E00F9FC019112450
:101FC00091E4892E912C6FEF27E0C22ED12CAA2408
:101FD000A394B12CC6018C1B9109950102C0220F5C
:101FE000331F8A95E2F7C90180956823CF5FC83017
:101FF00058F0F70180819181800F911F0E94B30EEC
:102000000F5F1F4F6FEFC0E0F1E08F1A910811F7DB
:102010006F3F51F0F70180819181800F911F0E94E5
:10202000B30E02C0219695CF80E090E0DF91CF9172
:102030001F910F91FF90EF90DF90CF90BF90AF90E6
:102040009F908F907F906F905F904F900895CF9268
:10205000DF92EF92FF920F931F93CF93DF937C0158
:10206000809117039091180318161906BCF4E0919B
:102070001503F0911603C280D3808FEFC816D806DF
:1020800069F08701C0E4D0E0C6018C1B9D0B0E9463
:10209000E319F80181938F012197B0F7C701DF9110
:1020A000CF911F910F91FF90EF90DF90CF90089507
:1020B0000F93CF93DF93C5E2D3E01B861A8660E4CB
:1020C000CE010E945D0A0F81069506950695015086
:1020D0004E81415020E060E0CE010E94940ADF91E1
:1020E000CF910F91089530917702313208F04BC0B3
:1020F000809153028111FCCF9091760222E02093CF
:10210000530221E0209352022FEF209351021092AC
:10211000500230934F02E6E5F2E0AFE2B2E020E099
:10212000321721F041914D932F5FFACF10922E027A
:1021300020912E02990F922B90932E0290912D02B6
:10214000913061F410922D0290912E029093BB0079
:102150009091BC0093FDF8CF95EC01C095EE909363
:10216000BC00909153029230E1F3909151029F3F55
:1021700079F080915102803241F080915102803398
:1021800031F084E005C081E003C082E001C083E05B
:102190001092550210927702109254020895682FFF
:1021A00088E792E00C94600590E0FC01E15DF64F59
:1021B0002491FC01E55EF64F3491FC01E95FF64F96
:1021C000E491EE2309F43CC0222339F1233091F04D
:1021D00038F42130A9F0223001F584B58F7D12C08A
:1021E000273091F02830A1F02430B9F4809180009C
:1021F0008F7D03C0809180008F77809380000DC019
:1022000084B58F7784BD09C08091B0008F7703C0FB
:102210008091B0008F7D8093B000F0E0EE0FFF1F43
:10222000E350F74FA591B4919FB7F894611104C0A2
:102230008C913095382302C0EC913E2B3C939FBF8C
:102240000895CF93DF9390E0FC01E55EF64F249173
:10225000FC01E95FF64F8491882361F190E0880FDB
:10226000991FFC01ED50F74FC591D491FC01E3504B
:10227000F74FA591B491611109C09FB7F894888177
:10228000209582238883EC912E230BC0623061F469
:102290009FB7F8948881322F309583238883EC91FF
:1022A0002E2B2C939FBF06C08FB7F894E8812E2B5E
:1022B00028838FBFDF91CF9108953FB7F894809125
:1022C000290290912A02A0912B02B0912C0226B5EE
:1022D000A89B05C02F3F19F00196A11DB11D3FBF5E
:1022E000BA2FA92F982F8827820F911DA11DB11DEC
:1022F000BC01CD0142E0660F771F881F991F4A95E8
:10230000D1F708952FB7F8946091250270912602B5
:1023100080912702909128022FBF08951F920F925B
:102320000FB60F9211242F933F938F939F93AF93E8
:10233000BF938091250290912602A0912702B0912F
:1023400028023091380323E0230F2D3720F4019623
:10235000A11DB11D05C026E8230F0296A11DB11DC8
:10236000209338038093250290932602A09327029E
:10237000B09328028091290290912A02A0912B0209
:10238000B0912C020196A11DB11D8093290290935A
:102390002A02A0932B02B0932C02BF91AF919F9180
:1023A0008F913F912F910F900FBE0F901F90189516
:1023B000CF93DF93CDB7DEB766970FB6F894DEBF45
:1023C0000FBECDBF789484B5826084BD84B5816032
:1023D00084BD85B5826085BD85B5816085BD8091F0
:1023E0006E00816080936E00109281008091810068
:1023F0008260809381008091810081608093810060
:10240000809180008160809380008091B100846021
:102410008093B1008091B00081608093B000809182
:102420007A00846080937A0080917A008260809341
:102430007A0080917A00816080937A0080917A009E
:10244000806880937A001092C100E0918802F09138
:10245000890282E08083E0918402F09185021082FB
:10246000E0918602F091870210E1108310929002B1
:10247000E0918C02F0918D0286E08083E0918A02E7
:10248000F0918B02808180618083E0918A02F091DB
:102490008B02808188608083E0918A02F0918B02B8
:1024A000808180688083E0918A02F0918B02808134
:1024B0008F7D80830E94DB0E62E082E00E9421110A
:1024C00062E087E00E94211162E084E00E94211115
:1024D00062E086E00E94211162E085E00E94211105
:1024E00061E083E00E94211187B18F6087B910936A
:1024F00081001092800081E08093020280E491E0EC
:10250000909301028093000290938700809386004D
:1025100081E18093810061E089E00E942111809136
:102520008000806880938000209100023091010239
:10253000AFEFB3E00E94451ADC01CB013AE0B6955B
:10254000A795979587953A95D1F7909389008093B1
:1025500088008091020280618093810061E08AE0BE
:102560000E942111809180008062809380002091E0
:10257000000230910102AFEFB3E00E94451ADC0186
:10258000CB014AE0B695A795979587954A95D1F7DF
:1025900090938B0080938A008091020280618093E7
:1025A00081001092C9018091C1010E94660C0E94B5
:1025B000A40C61E088E00E94211161E088E00E94A3
:1025C000D410AAEEB1E0E8E0F2E011921D9222E010
:1025D000E031F207D1F71092C8011092C7011092B2
:1025E0005502109277021092530211E0109352029A
:1025F00010922D0261E082E10E94D41061E083E13B
:102600000E94D4108091B9008E7F8093B900809190
:10261000B9008D7F8093B90088E48093B80085E489
:102620008093BC008BE096E09093C6018093C50137
:102630008CE096E09093C4018093C3011093540200
:102640008CE38093760210925502109277020E94DA
:10265000731091E0811190E09093D301811150C0EB
:102660008CE08093B800109237038CE3809336039C
:102670001092290310922A03E1E4F8E085919491E5
:10268000E82EE3E4F8E0F490E4E4F8E0E491E09389
:102690002B03E5E4F8E0E491E0932C03E6E4F8E0B2
:1026A000E491E0932D038C01802F8E198F1548F44F
:1026B000F801649185E293E00E945D0A0F5F1F4F6D
:1026C000F3CF0E94581060EA85E293E00E945D0A11
:1026D00060EC85E293E00E945D0AE3E5F6E0F093AA
:1026E0003303E09332038491E4E5F6E0E491F0E013
:1026F000F82B319709F0E4C510922E030E94581070
:102700006AEF70E080E090E00E94EB0D01E010E0E5
:10271000109318030093170388E090E00E94821A38
:102720009093160380931503DC0111961C930E936E
:1027300021E034E015963C932E93149780E090E0CE
:102740000E942D098E8B61E080E090E00E94EB19E1
:10275000612C712CE12CF12C8091170390911803BE
:102760000091150310911603E816F9060CF091C0BC
:10277000C7010E940A0F1C01BE89B13041F0F80167
:10278000E60DF71DBC01808191810E94280F809188
:102790001503909116034C01860C971C9B8A8A8A1C
:1027A000D401AD90BC9041018A0C9B1C9D8A8C8AFF
:1027B000240121E0421A5108120145018FEF0FEF69
:1027C0001FEF28143904DCF0810108191909159547
:1027D0000795080D191DC8010E942D099FEF980F3C
:1027E0009E3F48F1811105C048013FEF831A930ACB
:1027F000E8CF180141E0241A31088FEFE2CF8111B0
:1028000012C004151505BCF40F5F1F4FC8010E94CC
:102810002D098823B1F30FC001501109C8010E948E
:102820002D098F3F19F40A151B05B4F7041515057A
:1028300014F40F5F1F4FC8010E942D0927E030E0FC
:1028400091E0482F492321F0990F21503109F9CF08
:102850000A191B0993E0000F111F9A95E1F7020F67
:10286000131F0F3F5FEF150729F08C889D88080D17
:10287000191D02C00FEF1FEFAA89BB8913961C9385
:102880000E931297BFEFEB1AFB0AE4E06E0E711C79
:1028900063CFEE0CFF1CEE0CFF1CF801EE0DFF1DCC
:1028A0008FEF9FEF9383828381E00E942207109233
:1028B000E2010E9482111092CF011092D001109279
:1028C000D1011092D20187E498E00E94FE0E409060
:1028D000CF015090D0016090D1017090D20141148D
:1028E00051046104710409F447C00E945D114B0159
:1028F0005C018091CB019091CC01A091CD01B09170
:10290000CE0188169906AA06BB06B0F160910101B6
:102910009091CA018091C901992371F0282F30E06C
:10292000492F50E04150510924233523232B21F412
:10293000909300011092CA0190910001662311F05A
:10294000890F01C0891B8093C9010E94A40C80914A
:10295000050290910602019690930602809305026B
:10296000480C591C6A1C7B1C4092CB015092CC0134
:102970006092CD017092CE01E091E2018E2F90E045
:102980008830910508F04CC1FC01EC5CFF4F0C94C1
:10299000681A0E9482110091DE011091DF012091DE
:1029A000E0013091E101AB01BC01401B510B620B16
:1029B000730B8091DC019091DD01A0E0B0E0841701
:1029C0009507A607B70798F481E02091DA013091C6
:1029D000DB01232B09F480E08093070210920602AA
:1029E0001092050280E00E94520E86E01AC11092F9
:1029F00007020E94E40D882399F08091DA019091FA
:102A0000DB01892B29F481E00E94520E81E009C18B
:102A10006AEF70E080E091E00E94EB0D83E001C17D
:102A20008091EE01882329F080E00E94520E82E01E
:102A3000F8C00E9482110091DE011091DF01209107
:102A4000E0013091E101DC01CB01801B910BA20B75
:102A5000B30B81329E44A105B105A8F160E088E086
:102A60000E94D4108091D30181110E94581080914E
:102A7000F701811126C010922302109222021092B7
:102A800021021092200281E0809303018093F701DC
:102A90008093F601BAE08B2E912CA12CB12C809260
:102AA000F8019092F901A092FA01B092FB010E9404
:102AB00082116093FC017093FD018093FE0190935D
:102AC000FF0187E0AEC08091D6019091D70120919F
:102AD000D8013091D9012817390709F4A4C090937F
:102AE000D9018093D8010E94B90D9DC00E94E40DC8
:102AF00081110DC00E94320E8091D4019091D501B8
:102B0000892B11F085E001C080E00E94CF0D20915B
:102B1000D8013091D9018091D6019091D701281721
:102B2000390709F480C081E00E94520E7CC0809178
:102B3000EE01811178C00E94320E72C00E94E40D35
:102B4000811171C08091DA019091DB0190930402B0
:102B50008093030220910702222351F02091D40197
:102B60003091D501820F931F90930402809303024A
:102B700010920702109206021092050281E00E9454
:102B8000520E84E04EC020910502309106028091E1
:102B90000302909104022817390708F444C00E94E8
:102BA000320E8091D4019091D501892BC9F185E035
:102BB00038C020910502309106028091D401909195
:102BC000D5012817390778F1B6CF0E94E40D81119D
:102BD00017C08091EE01811113C08091EF01811126
:102BE0000FC08091F00181110BC02091D80130916C
:102BF000D9018091D6019091D7012817390799F012
:102C000061E088E00E94D4108091D8019091D901B0
:102C10000E94B90D6AEF70E080E090E00E94EB0D39
:102C200080E00E94CF0D0E9482110091100210914D
:102C3000110220911202309113024B015C01801AA3
:102C4000910AA20AB30A950184010A3011052105EF
:102C5000310550F48091240291E0980F9093240262
:102C60008F7009F02AC32BC029B1609310027093B2
:102C700011028093120290931302E8E0F2E0AAEEB0
:102C8000B1E080E090E030E071E06081660FA90182
:102C9000082E02C0559547950A94E2F740FF6160FF
:102CA00060834191411102C01C9203C04F3F09F45F
:102CB0007C93019611968830910539F7CBCF88E740
:102CC00092E00E942805892B09F47FC188E792E0F1
:102CD0000E940605182F782E0E9482111B012C01DC
:102CE0000E94821120911602309117024091180221
:102CF00050911902DC01CB01821B930BA40BB50B85
:102D0000813D9740A105B10540F08091140290915A
:102D100015020397039708F4D7C220921602309247
:102D20001702409218025092190280911402909159
:102D3000150283309105A1F018F4892B39F06AC08F
:102D40008430910519F10597E1F164C01B3109F058
:102D500068C043E050E0509315024093140235C11F
:102D60001B3539F464E070E070931502609314022F
:102D70002CC11F3439F485E090E0909315028093C4
:102D8000140223C11B3109F045C04BC01F3499F315
:102D90001092150210921402113419F4ABEF7A2E2E
:102DA00040C0123419F4FCEF7F2E3BC0133419F4E9
:102DB000EEEF7E2E36C0143409F007C17DEF772E7A
:102DC00030C01092150210921402113439F31234EB
:102DD00051F3133469F3143489F31D3401F186E996
:102DE000810F803108F0F1C081E1E5E4F1E0DE011E
:102DF000119601900D928A95E1F7E12F110FFF0BCB
:102E0000EA56F109A1E0B0E0AC0FBD1FEA0FFB1FCD
:102E1000708007C01092150210921402D6C06AE0AA
:102E2000762E8091020187FD73C0BDE07B1619F0FC
:102E3000EAE07E123AC00E94DB0E8091E90188230D
:102E400071F183EE91E00E94B4198C01609102014E
:102E50002FE06203B0011124635A774F4FE050E036
:102E6000CE0101960E94D219888599850817190705
:102E70003CF02A853B85C801201731070CF4C901B5
:102E8000209102012A3034F4EA81FB81309711F05D
:102E900091838083EE85FF85309709F009950E9424
:102EA000AD0D3FEF309302018EC048E0741217C0A1
:102EB000E091E901EE2379F0E150E093E901F0E0DF
:102EC000ED51FE4F108288E00E94CF1080E20E94F8
:102ED000CF1088E001C087E00E94CF1076C0872D18
:102EE000072C000C990BC0970A9708F06EC0109140
:102EF000E901153080F7872D0E94CF1081E0810F06
:102F00008093E901E12FF0E0ED51FE4F70825DC04A
:102F10005DE5E52E58E0F52E00E010E04FE050E0D2
:102F2000B701CE0101960E94D2198981781242C060
:102F30008091020187FD05C00E94DB0E5FEF509378
:102F400002018A819B81892B39F18C819D810E94AC
:102F5000E20C8AE598E00E94E30E4885598560E01E
:102F600070E02AE088E792E00E94540887E598E044
:102F70000E94E30E4A855B8560E070E02AE088E706
:102F800092E00E94540883E598E00E94E30E0E94BC
:102F9000AD0D0093020119C0EE85FF85309751F009
:102FA00009958C819D810E94E20C8DE498E00E943D
:102FB000FE0E0BC00F5F1F4F6FE0E60EF11C0A30D4
:102FC000110509F0ABCF0E94F00C0E9482112B0179
:102FD0003C0180911F02813081F120F0823009F4A0
:102FE00052C08AC08091F001882381F040921B0278
:102FF00050921C0260921D0270921E0210921A02E0
:1030000081E090E00E94CB0C81E014C08091EF0140
:10301000882309F473C040921B0250921C026092F4
:103020001D0270921E0210921A028FEF9FEF0E94F3
:10303000CB0C82E080931F0261C08091F00181116E
:1030400002C010921F0280911B0290911C02A0915D
:103050001D02B0911E0253014201881A990AAA0A60
:10306000BB0A25EF821621E09206A104B1040CF4FC
:1030700045C0F0901A020F2D10E0065F1E4FD801D8
:103080008C9190E027C08091EF01811102C01092D5
:103090001F0280911B0290911C02A0911D02B09111
:1030A0001E0253014201881A990AAA0ABB0A25EF97
:1030B000821621E09206A104B10404F1F0901A02F4
:1030C0000F2D10E0065F1E4FD8018C9190E0919576
:1030D000819591090E94CB0CF8018181882319F018
:1030E000F394F0921A0240921B0250921C026092DA
:1030F0001D0270921E0202C010921F020E948211D5
:103100000091FC011091FD012091FE013091FF0121
:103110002B013C01401A510A620A730A0091F8011E
:103120001091F9012091FA013091FB0140165106EE
:103130006206730608F4C1C06093FC017093FD0140
:103140008093FE019093FF018091F701882309F499
:103150008AC080912202909123029C01220F331F8A
:103160002F5F3F4F60910301409120025091210257
:10317000662371F0240F351F309321022093200223
:103180008E3F910519F41092030114C001960EC0F0
:103190004A01821A930A909221028092200200979B
:1031A00021F481E08093030105C0019790932302ED
:1031B00080932202C0902102D12C61E083E00E9422
:1031C0002111C114D10411F460E005C02FEFC21623
:1031D000D10429F461E083E00E94D4106EC0E2E3E0
:1031E000F9E084918330F9F048F48130B9F082300D
:1031F000A1F584B5806284BDC8BC5FC08730E9F0AA
:10320000883019F1843049F5809180008062809384
:103210008000D0928B00C0928A004FC084B5806835
:1032200084BDC7BC4AC080918000806880938000C4
:10323000D0928900C092880040C08091B000806820
:103240008093B000C092B30038C08091B00080621B
:103250008093B000C092B40030C0F0E8CF16D10423
:103260000CF0B8CFB1CF8091F601882371F00091B6
:10327000F4011091F50101151105F9F060E083E00A
:103280000E94D4101092F6010EC00091F20110912C
:10329000F3010115110589F061E083E00E94D4106B
:1032A00081E08093F60120E030E00093F801109374
:1032B000F9012093FA013093FB010E94CF0507CB5F
:1032C00081E080932E031ACA109215021092140204
:1032D00024CDE8E7F2E01382128288EE93E0A0E0CA
:1032E000B0E084839583A683B78327E131E03183FF
:1032F000208325EC30E03587248724EC30E03787C5
:10330000268720EC30E0318B208B21EC30E0338BB2
:10331000228B22EC30E0358B248B26EC30E0378B8F
:10332000268B118E128E138E148E1092180310920B
:103330001703E9E1F3E01382128284839583A68365
:10334000B78389E291E091838083E5E2F3E0138221
:103350001282148616861586178681E0808B8BE391
:1033600091E0918380830895FC0188279927E89450
:1033700021912032E9F3293010F02E30C8F32B329E
:1033800041F02D3239F4689404C00E94DB19820F99
:10339000911D219120532A30C0F31EF49095819500
:1033A0009F4F0895FB01DC0102C005900D92415032
:1033B0005040D8F708957AE0979F902D879F802DF1
:1033C000910D11240895F999FECF92BD81BDF89A0F
:1033D000992780B50895262FF999FECF1FBA92BD7F
:1033E00081BD20BD0FB6F894FA9AF99A0FBE0196E6
:1033F0000895052E97FB1EF400940E94101A57FDA5
:1034000007D00E94231A07FC03D04EF40C94101A24
:1034100050954095309521953F4F4F4F5F4F089500
:1034200090958095709561957F4F8F4F9F4F089530
:103430000E94451AA59F900DB49F900DA49F800DEA
:10344000911D11240895A1E21A2EAA1BBB1BFD0198
:103450000DC0AA1FBB1FEE1FFF1FA217B307E40773
:10346000F50720F0A21BB30BE40BF50B661F771FCB
:10347000881F991F1A9469F76095709580959095AB
:103480009B01AC01BD01CF010895A29FB001B39F84
:10349000C001A39F700D811D1124911DB29F700D5D
:1034A000811D1124911D089597FB072E16F4009499
:1034B00007D077FD09D00E946E1A07FC05D03EF4B4
:1034C000909581959F4F0895709561957F4F0895D0
:1034D000EE0FFF1F0590F491E02D0994AA1BBB1B72
:1034E00051E107C0AA1FBB1FA617B70710F0A61B04
:1034F000B70B881F991F5A95A9F780959095BC0125
:10350000CD0108950F931F93CF93DF9382309105E0
:1035100010F482E090E0E0913B03F0913C0320E066
:1035200030E0A0E0B0E0309719F140815181028194
:10353000138148175907C8F08417950769F4109745
:1035400031F012960C93129713961C9327C0009398
:103550003B0310933C0322C02115310519F042179B
:10356000530718F49A01BD01EF01DF01F801DBCF29
:1035700021153105F9F0281B390B2430310580F471
:103580008A819B816115710521F0FB019383828300
:1035900004C090933C0380933B03FE01329644C0E9
:1035A000FE01E20FF31F8193919322503109398379
:1035B00028833AC02091390330913A03232B41F4F8
:1035C000209106013091070130933A03209339038B
:1035D00020910401309105012115310541F42DB7E9
:1035E0003EB74091080150910901241B350BE09131
:1035F0003903F0913A03E217F307A0F42E1B3F0BB7
:103600002817390778F0AC014E5F5F4F2417350754
:1036100048F04E0F5F1F50933A0340933903819354
:10362000919302C0E0E0F0E0CF01DF91CF911F91D4
:103630000F910895CF93DF93009709F481C0FC01A7
:10364000329713821282A0913B03B0913C031097F2
:1036500081F420813181820F931F209139033091B1
:103660003A032817390751F5F0933A03E0933903E9
:1036700067C0ED0120E030E0CE17DF0740F44A815B
:103680005B819E0141155105F1F0EA01F5CFD3832D
:10369000C28340815181840F951FC817D90759F4FF
:1036A00088819981840F951F0296918380838A81F6
:1036B0009B81938382832115310529F4F0933C0388
:1036C000E0933B033DC0E901FB83EA8349915991B3
:1036D000C40FD51FEC17FD0761F480819181840F21
:1036E000951F0296E90199838883828193819B8348
:1036F0008A83E0E0F0E012968D919C9113970097F9
:1037000019F0FD01DC01F7CF8D919C9111979D017E
:103710002E5F3F4F820F931F2091390330913A0360
:103720002817390769F4309729F410923C03109256
:103730003B0302C013821282B0933A03A093390371
:10374000DF91CF91089581E090E0F8940C94A81B4C
:04375000F894FFCF1B
:103754002001FF0100003D038000010102050A145D
:10376400326400000000006005CD04F704AD0528B4
:103774000506051A0500000000660639061D070D3A
:103784000631061D060E0600000000CC0ACD041DFD
:10379400071C071A082A2B2C2D2E2F3031323334D4
:0A37A4003536373839000D0A0000F1
:107800000C94343C0C94513C0C94513C0C94513CE1
:107810000C94513C0C94513C0C94513C0C94513CB4
:107820000C94513C0C94513C0C94513C0C94513CA4
:107830000C94513C0C94513C0C94513C0C94513C94
:107840000C94513C0C94513C0C94513C0C94513C84
:107850000C94513C0C94513C0C94513C0C94513C74
:107860000C94513C0C94513C11241FBECFEFD8E036
:10787000DEBFCDBF11E0A0E0B1E0ECE9FFE702C060
:1078800005900D92A230B107D9F712E0A2E0B1E065
:1078900001C01D92AD30B107E1F70E942D3D0C945F
:1078A000CC3F0C94003C982F959595959595959582
:1078B000905D8F708A307CF0282F295A8091C0000B
:1078C00085FFFCCF9093C6008091C00085FFFCCF60
:1078D0002093C6000895282F205DF0CF982F809127
:1078E000C00085FFFCCF9093C6000895EF92FF92F1
:1078F0000F931F93EE24FF2487018091C00087FD22
:1079000017C00894E11CF11C011D111D81E4E8164B
:1079100082E4F8068FE0080780E0180770F3E09132
:107920000401F091050109958091C00087FFE9CF1E
:107930008091C6001F910F91FF90EF9008950E94D3
:10794000763C982F8091C00085FFFCCF9093C600B5
:1079500091362CF490330CF09053892F089597555D
:10796000892F08951F930E949F3C182F0E949F3CCF
:107970001295107F810F1F9108951F93182F882350
:1079800021F00E94763C1150E1F71F9108951F935A
:10799000182F0E94763C803249F0809103018F5F5E
:1079A000809303018530C1F01F9108958091C0003C
:1079B00085FFFCCF84E18093C6008091C00085FFE5
:1079C000FCCF1093C6008091C00085FFFCCF80E102
:1079D0008093C6001F910895E0910401F091050184
:1079E00009951F9108950E94763C803241F0809164
:1079F00003018F5F80930301853081F008958091AA
:107A0000C00085FFFCCF84E18093C6008091C00058
:107A100085FFFCCF80E18093C6000895E0910401CA
:107A2000F09105010995089540E951E08823A1F0FE
:107A30002D9A28EE33E0FA013197F1F721503040CA
:107A4000D1F72D9828EE33E0FA013197F1F7215064
:107A50003040D1F7815061F708953F924F925F9285
:107A60006F927F928F929F92AF92BF92CF92DF924E
:107A7000EF92FF920F931F93CF93DF93000080E16B
:107A80008093C4001092C50088E18093C10086E015
:107A90008093C2005098589A259A81E00E94143D24
:107AA00024E1F22E9EE1E92E85E9D82E0FE0C02ECA
:107AB00010E1B12EAA24A394B1E49B2EA6E58A2E50
:107AC000F2E57F2EE0E26E2E79E4572E63E5462E36
:107AD00050E5352E0E94763C8033B1F18133B9F107
:107AE000803409F46FC0813409F476C0823409F41B
:107AF00085C0853409F488C0803531F1823521F1A3
:107B0000813511F1853509F485C0863509F48DC0BC
:107B1000843609F496C0843709F403C1853709F423
:107B200072C1863709F466C0809103018F5F80932C
:107B30000301853079F6E0910401F0910501099582
:107B40000E94763C803351F60E94F33CC3CF0E94E2
:107B5000763C803249F78091C00085FFFCCFF092DF
:107B6000C6008091C00085FFFCCF9092C600809136
:107B7000C00085FFFCCF8092C6008091C00085FFC9
:107B8000FCCF7092C6008091C00085FFFCCF609250
:107B9000C6008091C00085FFFCCF5092C600809146
:107BA000C00085FFFCCF4092C6008091C00085FFD9
:107BB000FCCF3092C6008091C00085FFFCCFB09210
:107BC000C60088CF0E94763C863808F4BDCF0E945C
:107BD000763C0E94F33C7ECF0E94763C803809F4CC
:107BE0009CC0813809F40BC1823809F43CC1883942
:107BF00009F48FC080E00E94C73C6CCF84E10E94F2
:107C0000BD3C0E94F33C66CF85E00E94BD3C0E94D3
:107C1000F33C60CF0E94763C809306010E94763C44
:107C2000809307010E94F33C55CF0E94763C80333D
:107C300009F41DC183E00E94BD3C80E00E94C73C66
:107C400049CF0E94763C809309020E94763C809343
:107C5000080280910C028E7F80930C020E94763C79
:107C6000853409F415C18091080290910902892B8D
:107C700089F000E010E00E94763CF801E85FFE4FDA
:107C800080830F5F1F4F80910802909109020817AF
:107C9000190788F30E94763C803209F045CF809125
:107CA0000C0280FF01C16091060170910701660F0F
:107CB000771F7093070160930601A0910802B091AD
:107CC00009021097C9F0E8E0F1E09B01AD014E0F09
:107CD0005F1FF999FECF32BD21BD819180BDFA9A17
:107CE000F99A2F5F3F4FE417F50799F76A0F7B1F4B
:107CF00070930701609306018091C00085FFFCCF5F
:107D0000F092C6008091C00085FFFCCFB092C60003
:107D1000E1CE83E00E94C73CDDCE82E00E94C73CFA
:107D2000D9CE0E94763C809309020E94763C8093D3
:107D300008028091060190910701880F991F909386
:107D40000701809306010E94763C853409F4A6C0A1
:107D500080910C028E7F80930C020E94763C8032D0
:107D600009F0B8CE8091C00085FFFCCFF092C6002C
:107D7000609108027091090261157105B9F140E046
:107D800050E080910C02A82FA170B82FB27011C0E2
:107D9000BB2309F45CC0E0910601F0910701319624
:107DA000F0930701E09306014F5F5F4F46175707B7
:107DB000E8F4AA2369F3F999FECF209106013091E6
:107DC000070132BD21BDF89A90B58091C00085FFB2
:107DD000FCCF9093C6002F5F3F4F30930701209355
:107DE00006014F5F5F4F4617570718F38091C00099
:107DF00085FDE5CE8091C00085FFF8CFE0CE81E023
:107E00000E94C73C67CE0E94763C803209F08CCE3F
:107E10008091C00085FFFCCFF092C6008091C00029
:107E200085FFFCCFE092C6008091C00085FFFCCFAB
:107E3000D092C6008091C00085FFFCCFC092C600E2
:107E40008091C00085FFFCCFB092C60043CEE09188
:107E50000601F091070194918091C00085FFFCCF4D
:107E60009093C6009CCF80E10E94C73C33CE0E9415
:107E7000763C0E94763C182F0E94763C112309F430
:107E800083C0113009F484C08FE00E94C73C22CE29
:107E900080910C02816080930C02E5CE80910C02EF
:107EA000816080930C0259CF809107018823880F4D
:107EB000880B8A2180930B02809106019091070123
:107EC000880F991F90930701809306018091080203
:107ED00080FF09C080910802909109020196909359
:107EE000090280930802F894F999FECF1127E091D6
:107EF0000601F0910701C8E0D1E08091080290915D
:107F00000902103091F40091570001700130D9F34B
:107F100003E000935700E89500915700017001308D
:107F2000D9F301E100935700E89509901990009169
:107F3000570001700130D9F301E000935700E89534
:107F40001395103498F011270091570001700130FB
:107F5000D9F305E000935700E895009157000170B0
:107F60000130D9F301E100935700E895329602976A
:107F700009F0C7CF103011F00296E5CF112480919F
:107F8000C00085FFB9CEBCCE8EE10E94C73CA2CD19
:0C7F900085E90E94C73C9ECDF894FFCF0D
:027F9C00800063
:040000030000780081
:00000001FF
